{
  "contractName": "METFaucet",
  "abi": [
    {
      "inputs": [
        {
          "internalType": "address",
          "name": "_METoken",
          "type": "address"
        },
        {
          "internalType": "address",
          "name": "_METOwner",
          "type": "address"
        }
      ],
      "stateMutability": "nonpayable",
      "type": "constructor"
    },
    {
      "inputs": [],
      "name": "METOwner",
      "outputs": [
        {
          "internalType": "address",
          "name": "",
          "type": "address"
        }
      ],
      "stateMutability": "view",
      "type": "function",
      "constant": true
    },
    {
      "inputs": [],
      "name": "METoken",
      "outputs": [
        {
          "internalType": "contract ERC20",
          "name": "",
          "type": "address"
        }
      ],
      "stateMutability": "view",
      "type": "function",
      "constant": true
    },
    {
      "stateMutability": "payable",
      "type": "receive",
      "payable": true
    },
    {
      "inputs": [
        {
          "internalType": "uint256",
          "name": "withdraw_amount",
          "type": "uint256"
        }
      ],
      "name": "withdraw",
      "outputs": [
        {
          "internalType": "bool",
          "name": "",
          "type": "bool"
        }
      ],
      "stateMutability": "nonpayable",
      "type": "function"
    }
  ],
  "bytecode": "0x608060405234801561001057600080fd5b5060405161068f38038061068f8339818101604052810190610032919061011d565b816000806101000a81548173ffffffffffffffffffffffffffffffffffffffff021916908373ffffffffffffffffffffffffffffffffffffffff16021790555080600160006101000a81548173ffffffffffffffffffffffffffffffffffffffff021916908373ffffffffffffffffffffffffffffffffffffffff160217905550505061015d565b600080fd5b600073ffffffffffffffffffffffffffffffffffffffff82169050919050565b60006100ea826100bf565b9050919050565b6100fa816100df565b811461010557600080fd5b50565b600081519050610117816100f1565b92915050565b60008060408385031215610134576101336100ba565b5b600061014285828601610108565b925050602061015385828601610108565b9150509250929050565b6105238061016c6000396000f3fe6080604052600436106100385760003560e01c80632e1a7d4d1461007d578063ad577be3146100ba578063f27f0fac146100e557610078565b36610078576040517f08c379a000000000000000000000000000000000000000000000000000000000815260040161006f906102ba565b60405180910390fd5b600080fd5b34801561008957600080fd5b506100a4600480360381019061009f9190610315565b610110565b6040516100b1919061035d565b60405180910390f35b3480156100c657600080fd5b506100cf6101ed565b6040516100dc91906103f7565b60405180910390f35b3480156100f157600080fd5b506100fa610211565b6040516101079190610433565b60405180910390f35b600061271082111561012157600080fd5b60008054906101000a900473ffffffffffffffffffffffffffffffffffffffff1673ffffffffffffffffffffffffffffffffffffffff166323b872dd600160009054906101000a900473ffffffffffffffffffffffffffffffffffffffff1633856040518463ffffffff1660e01b81526004016101a09392919061045d565b6020604051808303816000875af11580156101bf573d6000803e3d6000fd5b505050506040513d601f19601f820116820180604052508101906101e391906104c0565b5060019050919050565b60008054906101000a900473ffffffffffffffffffffffffffffffffffffffff1681565b600160009054906101000a900473ffffffffffffffffffffffffffffffffffffffff1681565b600082825260208201905092915050565b7f446f206e6f742073656e6420457468657220746f207468697320636f6e74726160008201527f63742e0000000000000000000000000000000000000000000000000000000000602082015250565b60006102a4602383610237565b91506102af82610248565b604082019050919050565b600060208201905081810360008301526102d381610297565b9050919050565b600080fd5b6000819050919050565b6102f2816102df565b81146102fd57600080fd5b50565b60008135905061030f816102e9565b92915050565b60006020828403121561032b5761032a6102da565b5b600061033984828501610300565b91505092915050565b60008115159050919050565b61035781610342565b82525050565b6000602082019050610372600083018461034e565b92915050565b600073ffffffffffffffffffffffffffffffffffffffff82169050919050565b6000819050919050565b60006103bd6103b86103b384610378565b610398565b610378565b9050919050565b60006103cf826103a2565b9050919050565b60006103e1826103c4565b9050919050565b6103f1816103d6565b82525050565b600060208201905061040c60008301846103e8565b92915050565b600061041d82610378565b9050919050565b61042d81610412565b82525050565b60006020820190506104486000830184610424565b92915050565b610457816102df565b82525050565b60006060820190506104726000830186610424565b61047f6020830185610424565b61048c604083018461044e565b949350505050565b61049d81610342565b81146104a857600080fd5b50565b6000815190506104ba81610494565b92915050565b6000602082840312156104d6576104d56102da565b5b60006104e4848285016104ab565b9150509291505056fea2646970667358221220bfd563bba3f0cc8efc242b93929aff6d61d22b5e8313fbdf5137deaa641310a164736f6c634300080a0033",
  "immutableReferences": {},
  "source": "// Version of Solidity compiler this program was written for\r\npragma solidity ^0.8.10;\r\n\r\nimport '../node_modules/openzeppelin-solidity/contracts/token/ERC20/ERC20.sol';\r\n\r\n\r\n// A faucet for ERC20 token MET\r\ncontract METFaucet {\r\n\r\n\tERC20 public METoken;\r\n\taddress public METOwner;\r\n\r\n\t// METFaucet constructor, provide the address of METoken contract and\r\n\t// the owner address we will be approved to transferFrom\r\n\tconstructor (address _METoken, address _METOwner) {\r\n\r\n\t\t// Initialize the METoken from the address provided\r\n\t\tMEToken = ERC20(_METoken);\r\n\t\tMETOwner = _METOwner;\r\n\t}\r\n\r\n\tfunction withdraw(uint withdraw_amount) public returns (bool) {\r\n\r\n    \t// Limit withdrawal amount to 10 MET\r\n    \trequire(withdraw_amount <= 10000);\r\n\r\n\t\t// Use the transferFrom function of METoken\r\n\t\tMEToken.transferFrom(METOwner, msg.sender, withdraw_amount);\r\n\t\treturn true;\r\n    }\r\n\r\n\t// REJECT any incoming ether; function() obsolete, use receive() instead\r\n\treceive() external payable {\r\n    revert(\"Do not send Ether to this contract.\");\r\n}\r\n}\r\n",
  "sourcePath": "C:\\Users\\SK2712\\OneDrive - Cal State Fullerton\\Desktop\\MidtermProj\\Cryptozombie demo package\\contracts\\METFaucet.sol",
  "compiler": {
    "name": "solc",
    "version": "0.8.10+commit.fc410830.Emscripten.clang"
  },
  "schemaVersion": "3.4.16",
  "updatedAt": "2024-03-12T23:28:45.982Z",
  "networkType": "ethereum",
  "devdoc": {
    "kind": "dev",
    "methods": {},
    "version": 1
  },
  "userdoc": {
    "kind": "user",
    "methods": {},
    "version": 1
  }
}