{
  "contractName": "ZombieAttack",
  "abi": [
    {
      "anonymous": false,
      "inputs": [
        {
          "indexed": false,
          "internalType": "uint256",
          "name": "zombieId",
          "type": "uint256"
        },
        {
          "indexed": false,
          "internalType": "string",
          "name": "name",
          "type": "string"
        },
        {
          "indexed": false,
          "internalType": "uint256",
          "name": "dna",
          "type": "uint256"
        }
      ],
      "name": "NewZombie",
      "type": "event"
    },
    {
      "anonymous": false,
      "inputs": [
        {
          "indexed": true,
          "internalType": "address",
          "name": "previousOwner",
          "type": "address"
        },
        {
          "indexed": true,
          "internalType": "address",
          "name": "newOwner",
          "type": "address"
        }
      ],
      "name": "OwnershipTransferred",
      "type": "event"
    },
    {
      "inputs": [],
      "name": "attackVictoryProbability",
      "outputs": [
        {
          "internalType": "uint256",
          "name": "",
          "type": "uint256"
        }
      ],
      "stateMutability": "view",
      "type": "function",
      "constant": true
    },
    {
      "inputs": [
        {
          "internalType": "uint256",
          "name": "_zombieId",
          "type": "uint256"
        },
        {
          "internalType": "uint256",
          "name": "_newDna",
          "type": "uint256"
        }
      ],
      "name": "changeDna",
      "outputs": [],
      "stateMutability": "nonpayable",
      "type": "function"
    },
    {
      "inputs": [
        {
          "internalType": "uint256",
          "name": "_zombieId",
          "type": "uint256"
        },
        {
          "internalType": "string",
          "name": "_newName",
          "type": "string"
        }
      ],
      "name": "changeName",
      "outputs": [],
      "stateMutability": "nonpayable",
      "type": "function"
    },
    {
      "inputs": [],
      "name": "cooldownTime",
      "outputs": [
        {
          "internalType": "uint256",
          "name": "",
          "type": "uint256"
        }
      ],
      "stateMutability": "view",
      "type": "function",
      "constant": true
    },
    {
      "inputs": [
        {
          "internalType": "string",
          "name": "_name",
          "type": "string"
        }
      ],
      "name": "createRandomZombie",
      "outputs": [],
      "stateMutability": "nonpayable",
      "type": "function"
    },
    {
      "inputs": [],
      "name": "dnaDigits",
      "outputs": [
        {
          "internalType": "uint256",
          "name": "",
          "type": "uint256"
        }
      ],
      "stateMutability": "view",
      "type": "function",
      "constant": true
    },
    {
      "inputs": [],
      "name": "dnaModulus",
      "outputs": [
        {
          "internalType": "uint256",
          "name": "",
          "type": "uint256"
        }
      ],
      "stateMutability": "view",
      "type": "function",
      "constant": true
    },
    {
      "inputs": [
        {
          "internalType": "uint256",
          "name": "_zombieId",
          "type": "uint256"
        },
        {
          "internalType": "uint256",
          "name": "_kittyId",
          "type": "uint256"
        }
      ],
      "name": "feedOnKitty",
      "outputs": [],
      "stateMutability": "nonpayable",
      "type": "function"
    },
    {
      "inputs": [
        {
          "internalType": "address",
          "name": "_owner",
          "type": "address"
        }
      ],
      "name": "getZombiesByOwner",
      "outputs": [
        {
          "internalType": "uint256[]",
          "name": "",
          "type": "uint256[]"
        }
      ],
      "stateMutability": "view",
      "type": "function",
      "constant": true
    },
    {
      "inputs": [],
      "name": "isOwner",
      "outputs": [
        {
          "internalType": "bool",
          "name": "",
          "type": "bool"
        }
      ],
      "stateMutability": "view",
      "type": "function",
      "constant": true
    },
    {
      "inputs": [
        {
          "internalType": "uint256",
          "name": "_zombieId",
          "type": "uint256"
        }
      ],
      "name": "levelUp",
      "outputs": [],
      "stateMutability": "payable",
      "type": "function",
      "payable": true
    },
    {
      "inputs": [],
      "name": "levelUpFee",
      "outputs": [
        {
          "internalType": "uint256",
          "name": "",
          "type": "uint256"
        }
      ],
      "stateMutability": "view",
      "type": "function",
      "constant": true
    },
    {
      "inputs": [],
      "name": "owner",
      "outputs": [
        {
          "internalType": "address",
          "name": "",
          "type": "address"
        }
      ],
      "stateMutability": "view",
      "type": "function",
      "constant": true
    },
    {
      "inputs": [
        {
          "internalType": "address",
          "name": "",
          "type": "address"
        }
      ],
      "name": "ownerZombieCount",
      "outputs": [
        {
          "internalType": "uint256",
          "name": "",
          "type": "uint256"
        }
      ],
      "stateMutability": "view",
      "type": "function",
      "constant": true
    },
    {
      "inputs": [],
      "name": "renounceOwnership",
      "outputs": [],
      "stateMutability": "nonpayable",
      "type": "function"
    },
    {
      "inputs": [
        {
          "internalType": "address",
          "name": "_address",
          "type": "address"
        }
      ],
      "name": "setKittyContractAddress",
      "outputs": [],
      "stateMutability": "nonpayable",
      "type": "function"
    },
    {
      "inputs": [
        {
          "internalType": "uint256",
          "name": "_fee",
          "type": "uint256"
        }
      ],
      "name": "setLevelUpFee",
      "outputs": [],
      "stateMutability": "nonpayable",
      "type": "function"
    },
    {
      "inputs": [
        {
          "internalType": "address",
          "name": "newOwner",
          "type": "address"
        }
      ],
      "name": "transferOwnership",
      "outputs": [],
      "stateMutability": "nonpayable",
      "type": "function"
    },
    {
      "inputs": [],
      "name": "withdraw",
      "outputs": [],
      "stateMutability": "nonpayable",
      "type": "function"
    },
    {
      "inputs": [
        {
          "internalType": "uint256",
          "name": "",
          "type": "uint256"
        }
      ],
      "name": "zombieToOwner",
      "outputs": [
        {
          "internalType": "address",
          "name": "",
          "type": "address"
        }
      ],
      "stateMutability": "view",
      "type": "function",
      "constant": true
    },
    {
      "inputs": [
        {
          "internalType": "uint256",
          "name": "",
          "type": "uint256"
        }
      ],
      "name": "zombies",
      "outputs": [
        {
          "internalType": "string",
          "name": "name",
          "type": "string"
        },
        {
          "internalType": "uint256",
          "name": "dna",
          "type": "uint256"
        },
        {
          "internalType": "uint32",
          "name": "level",
          "type": "uint32"
        },
        {
          "internalType": "uint32",
          "name": "readyTime",
          "type": "uint32"
        },
        {
          "internalType": "uint16",
          "name": "winCount",
          "type": "uint16"
        },
        {
          "internalType": "uint16",
          "name": "lossCount",
          "type": "uint16"
        }
      ],
      "stateMutability": "view",
      "type": "function",
      "constant": true
    },
    {
      "inputs": [
        {
          "internalType": "uint256",
          "name": "_zombieId",
          "type": "uint256"
        },
        {
          "internalType": "uint256",
          "name": "_targetId",
          "type": "uint256"
        }
      ],
      "name": "attack",
      "outputs": [],
      "stateMutability": "nonpayable",
      "type": "function"
    }
  ],
  "bytecode": "0x60806040526010600155600154600a6200001a919062000295565b6002556201518060035566038d7ea4c6800060085560006009556046600a553480156200004657600080fd5b50336000806101000a81548173ffffffffffffffffffffffffffffffffffffffff021916908373ffffffffffffffffffffffffffffffffffffffff16021790555060008054906101000a900473ffffffffffffffffffffffffffffffffffffffff1673ffffffffffffffffffffffffffffffffffffffff16600073ffffffffffffffffffffffffffffffffffffffff167f8be0079c531659141344cd1fd0a4f28419497f9722a3daafe3b4186f6b6457e060405160405180910390a3620002e6565b7f4e487b7100000000000000000000000000000000000000000000000000000000600052601160045260246000fd5b60008160011c9050919050565b6000808291508390505b600185111562000196578086048111156200016e576200016d62000108565b5b60018516156200017e5780820291505b80810290506200018e8562000137565b94506200014e565b94509492505050565b600082620001b1576001905062000284565b81620001c1576000905062000284565b8160018114620001da5760028114620001e5576200021b565b600191505062000284565b60ff841115620001fa57620001f962000108565b5b8360020a91508482111562000214576200021362000108565b5b5062000284565b5060208310610133831016604e8410600b8410161715620002555782820a9050838111156200024f576200024e62000108565b5b62000284565b62000264848484600162000144565b925090508184048111156200027e576200027d62000108565b5b81810290505b9392505050565b6000819050919050565b6000620002a2826200028b565b9150620002af836200028b565b9250620002de7fffffffffffffffffffffffffffffffffffffffffffffffffffffffffffffffff84846200019f565b905092915050565b612ad480620002f66000396000f3fe6080604052600436106101355760003560e01c80637bff0a01116100ab578063c39cbef11161006f578063c39cbef1146103f8578063c4114b1214610421578063ccf670f81461044c578063daba071114610475578063e1fa7638146104a0578063f2fde38b146104c957610135565b80637bff0a01146103235780638da5cb5b1461034c5780638f32d59b14610377578063a94d153b146103a2578063b319c6b7146103cd57610135565b80634412e104116100fd5780634412e10414610215578063528b7b8f146102525780635f4623f11461028f5780635faf2880146102b8578063692c6627146102e1578063715018a61461030c57610135565b806301afd7e11461013a5780630ce90ec21461017757806317a7f4cc146101935780632052465e146101bc5780633ccfd60b146101fe575b600080fd5b34801561014657600080fd5b50610161600480360381019061015c9190611c71565b6104f2565b60405161016e9190611cb7565b60405180910390f35b610191600480360381019061018c9190611cfe565b61050a565b005b34801561019f57600080fd5b506101ba60048036038101906101b59190611d2b565b6106fc565b005b3480156101c857600080fd5b506101e360048036038101906101de9190611cfe565b61081a565b6040516101f596959493929190611e40565b60405180910390f35b34801561020a57600080fd5b5061021361092a565b005b34801561022157600080fd5b5061023c60048036038101906102379190611c71565b6109c7565b6040516102499190611f66565b60405180910390f35b34801561025e57600080fd5b5061027960048036038101906102749190611cfe565b610b1a565b6040516102869190611f97565b60405180910390f35b34801561029b57600080fd5b506102b660048036038101906102b19190611c71565b610b4d565b005b3480156102c457600080fd5b506102df60048036038101906102da9190611d2b565b610bd8565b005b3480156102ed57600080fd5b506102f6610d2c565b6040516103039190611cb7565b60405180910390f35b34801561031857600080fd5b50610321610d32565b005b34801561032f57600080fd5b5061034a600480360381019061034591906120e7565b610e37565b005b34801561035857600080fd5b50610361610eee565b60405161036e9190611f97565b60405180910390f35b34801561038357600080fd5b5061038c610f17565b604051610399919061214b565b60405180910390f35b3480156103ae57600080fd5b506103b7610f6e565b6040516103c49190611cb7565b60405180910390f35b3480156103d957600080fd5b506103e2610f74565b6040516103ef9190611cb7565b60405180910390f35b34801561040457600080fd5b5061041f600480360381019061041a9190612166565b610f7a565b005b34801561042d57600080fd5b506104366110de565b6040516104439190611cb7565b60405180910390f35b34801561045857600080fd5b50610473600480360381019061046e9190611cfe565b6110e4565b005b34801561048157600080fd5b5061048a611135565b6040516104979190611cb7565b60405180910390f35b3480156104ac57600080fd5b506104c760048036038101906104c29190611d2b565b61113b565b005b3480156104d557600080fd5b506104f060048036038101906104eb9190611c71565b611450565b005b60066020528060005260406000206000915090505481565b6002818160048281548110610522576105216121c2565b5b906000526020600020906003020160020160009054906101000a900463ffffffff1663ffffffff16101561058b576040517f08c379a00000000000000000000000000000000000000000000000000000000081526004016105829061223d565b60405180910390fd5b826005600082815260200190815260200160002060009054906101000a900473ffffffffffffffffffffffffffffffffffffffff1673ffffffffffffffffffffffffffffffffffffffff163373ffffffffffffffffffffffffffffffffffffffff161461062d576040517f08c379a0000000000000000000000000000000000000000000000000000000008152600401610624906122a9565b60405180910390fd5b6008543414610671576040517f08c379a000000000000000000000000000000000000000000000000000000000815260040161066890612315565b60405180910390fd5b600160048581548110610687576106866121c2565b5b906000526020600020906003020160020160009054906101000a900463ffffffff166106b39190612364565b600485815481106106c7576106c66121c2565b5b906000526020600020906003020160020160006101000a81548163ffffffff021916908363ffffffff16021790555050505050565b6000600760009054906101000a900473ffffffffffffffffffffffffffffffffffffffff1673ffffffffffffffffffffffffffffffffffffffff1663e98b7f4d836040518263ffffffff1660e01b81526004016107599190611cb7565b61014060405180830381865afa158015610777573d6000803e3d6000fd5b505050506040513d601f19601f8201168201806040525081019061079b91906123df565b9091929394959697985090919293949596975090919293949596509091929394955090919293945090919293509091925090915090508091505061081583826040518060400160405280600581526020017f6b697474790000000000000000000000000000000000000000000000000000008152506115c4565b505050565b6004818154811061082a57600080fd5b906000526020600020906003020160009150905080600001805461084d906124ed565b80601f0160208091040260200160405190810160405280929190818152602001828054610879906124ed565b80156108c65780601f1061089b576101008083540402835291602001916108c6565b820191906000526020600020905b8154815290600101906020018083116108a957829003601f168201915b5050505050908060010154908060020160009054906101000a900463ffffffff16908060020160049054906101000a900463ffffffff16908060020160089054906101000a900461ffff169080600201600a9054906101000a900461ffff16905086565b610932610f17565b610971576040517f08c379a00000000000000000000000000000000000000000000000000000000081526004016109689061256b565b60405180910390fd5b600061097b610eee565b90508073ffffffffffffffffffffffffffffffffffffffff166108fc479081150290604051600060405180830381858888f193505050501580156109c3573d6000803e3d6000fd5b5050565b60606000600660008473ffffffffffffffffffffffffffffffffffffffff1673ffffffffffffffffffffffffffffffffffffffff1681526020019081526020016000205467ffffffffffffffff811115610a2457610a23611fbc565b5b604051908082528060200260200182016040528015610a525781602001602082028036833780820191505090505b5090506000805b600480549050811015610b0f578473ffffffffffffffffffffffffffffffffffffffff166005600083815260200190815260200160002060009054906101000a900473ffffffffffffffffffffffffffffffffffffffff1673ffffffffffffffffffffffffffffffffffffffff161415610afc5780838381518110610ae157610ae06121c2565b5b6020026020010181815250508180610af89061258b565b9250505b8080610b079061258b565b915050610a59565b508192505050919050565b60056020528060005260406000206000915054906101000a900473ffffffffffffffffffffffffffffffffffffffff1681565b610b55610f17565b610b94576040517f08c379a0000000000000000000000000000000000000000000000000000000008152600401610b8b9061256b565b60405180910390fd5b80600760006101000a81548173ffffffffffffffffffffffffffffffffffffffff021916908373ffffffffffffffffffffffffffffffffffffffff16021790555050565b6014828160048281548110610bf057610bef6121c2565b5b906000526020600020906003020160020160009054906101000a900463ffffffff1663ffffffff161015610c59576040517f08c379a0000000000000000000000000000000000000000000000000000000008152600401610c509061223d565b60405180910390fd5b836005600082815260200190815260200160002060009054906101000a900473ffffffffffffffffffffffffffffffffffffffff1673ffffffffffffffffffffffffffffffffffffffff163373ffffffffffffffffffffffffffffffffffffffff1614610cfb576040517f08c379a0000000000000000000000000000000000000000000000000000000008152600401610cf2906122a9565b60405180910390fd5b8360048681548110610d1057610d0f6121c2565b5b9060005260206000209060030201600101819055505050505050565b60015481565b610d3a610f17565b610d79576040517f08c379a0000000000000000000000000000000000000000000000000000000008152600401610d709061256b565b60405180910390fd5b600073ffffffffffffffffffffffffffffffffffffffff1660008054906101000a900473ffffffffffffffffffffffffffffffffffffffff1673ffffffffffffffffffffffffffffffffffffffff167f8be0079c531659141344cd1fd0a4f28419497f9722a3daafe3b4186f6b6457e060405160405180910390a360008060006101000a81548173ffffffffffffffffffffffffffffffffffffffff021916908373ffffffffffffffffffffffffffffffffffffffff160217905550565b6000600660003373ffffffffffffffffffffffffffffffffffffffff1673ffffffffffffffffffffffffffffffffffffffff1681526020019081526020016000205414610eb9576040517f08c379a0000000000000000000000000000000000000000000000000000000008152600401610eb090612620565b60405180910390fd5b6000610ec4826117cd565b9050606481610ed3919061266f565b81610ede91906126a0565b9050610eea8282611812565b5050565b60008060009054906101000a900473ffffffffffffffffffffffffffffffffffffffff16905090565b60008060009054906101000a900473ffffffffffffffffffffffffffffffffffffffff1673ffffffffffffffffffffffffffffffffffffffff163373ffffffffffffffffffffffffffffffffffffffff1614905090565b600a5481565b60035481565b6002828160048281548110610f9257610f916121c2565b5b906000526020600020906003020160020160009054906101000a900463ffffffff1663ffffffff161015610ffb576040517f08c379a0000000000000000000000000000000000000000000000000000000008152600401610ff29061223d565b60405180910390fd5b836005600082815260200190815260200160002060009054906101000a900473ffffffffffffffffffffffffffffffffffffffff1673ffffffffffffffffffffffffffffffffffffffff163373ffffffffffffffffffffffffffffffffffffffff161461109d576040517f08c379a0000000000000000000000000000000000000000000000000000000008152600401611094906122a9565b60405180910390fd5b83600486815481106110b2576110b16121c2565b5b906000526020600020906003020160000190805190602001906110d6929190611b5c565b505050505050565b60085481565b6110ec610f17565b61112b576040517f08c379a00000000000000000000000000000000000000000000000000000000081526004016111229061256b565b60405180910390fd5b8060088190555050565b60025481565b816005600082815260200190815260200160002060009054906101000a900473ffffffffffffffffffffffffffffffffffffffff1673ffffffffffffffffffffffffffffffffffffffff163373ffffffffffffffffffffffffffffffffffffffff16146111dd576040517f08c379a00000000000000000000000000000000000000000000000000000000081526004016111d4906122a9565b60405180910390fd5b6000600483815481106111f3576111f26121c2565b5b906000526020600020906003020160020160009054906101000a900463ffffffff1663ffffffff161161125b576040517f08c379a000000000000000000000000000000000000000000000000000000000815260040161125290612720565b60405180910390fd5b600060048481548110611271576112706121c2565b5b90600052602060002090600302019050600060048481548110611297576112966121c2565b5b9060005260206000209060030201905060006112b36064611a7d565b9050600a5481116113c45760018360020160089054906101000a900461ffff166112dd9190612740565b8360020160086101000a81548161ffff021916908361ffff16021790555060018360020160009054906101000a900463ffffffff1661131c9190612364565b8360020160006101000a81548163ffffffff021916908363ffffffff160217905550600182600201600a9054906101000a900461ffff1661135d9190612740565b82600201600a6101000a81548161ffff021916908361ffff1602179055506113bf8683600101546040518060400160405280600681526020017f7a6f6d62696500000000000000000000000000000000000000000000000000008152506115c4565b611448565b600183600201600a9054906101000a900461ffff166113e39190612740565b83600201600a6101000a81548161ffff021916908361ffff16021790555060018260020160089054906101000a900461ffff166114209190612740565b8260020160086101000a81548161ffff021916908361ffff16021790555061144783611ad6565b5b505050505050565b611458610f17565b611497576040517f08c379a000000000000000000000000000000000000000000000000000000000815260040161148e9061256b565b60405180910390fd5b600073ffffffffffffffffffffffffffffffffffffffff168173ffffffffffffffffffffffffffffffffffffffff161415611507576040517f08c379a00000000000000000000000000000000000000000000000000000000081526004016114fe906127c4565b60405180910390fd5b8073ffffffffffffffffffffffffffffffffffffffff1660008054906101000a900473ffffffffffffffffffffffffffffffffffffffff1673ffffffffffffffffffffffffffffffffffffffff167f8be0079c531659141344cd1fd0a4f28419497f9722a3daafe3b4186f6b6457e060405160405180910390a3806000806101000a81548173ffffffffffffffffffffffffffffffffffffffff021916908373ffffffffffffffffffffffffffffffffffffffff16021790555050565b826005600082815260200190815260200160002060009054906101000a900473ffffffffffffffffffffffffffffffffffffffff1673ffffffffffffffffffffffffffffffffffffffff163373ffffffffffffffffffffffffffffffffffffffff1614611666576040517f08c379a000000000000000000000000000000000000000000000000000000000815260040161165d906122a9565b60405180910390fd5b60006004858154811061167c5761167b6121c2565b5b9060005260206000209060030201905061169581611b09565b6116d4576040517f08c379a00000000000000000000000000000000000000000000000000000000081526004016116cb90612830565b60405180910390fd5b600254846116e2919061266f565b9350600060028583600101546116f89190612850565b61170291906128a6565b90506040516020016117139061292e565b604051602081830303815290604052805190602001208460405160200161173a9190612974565b60405160208183030381529060405280519060200120141561177d576063606482611765919061266f565b8261177091906126a0565b61177a9190612850565b90505b6117bc6040518060400160405280600681526020017f4e6f4e616d65000000000000000000000000000000000000000000000000000081525082611812565b6117c582611ad6565b505050505050565b600080826040516020016117e19190612974565b6040516020818303038152906040528051906020012060001c90506002548161180a919061266f565b915050919050565b6000600480549050905060046040518060c00160405280858152602001848152602001600163ffffffff168152602001600354426118509190612850565b63ffffffff168152602001600061ffff168152602001600061ffff16815250908060018154018082558091505060019003906000526020600020906003020160009091909190915060008201518160000190805190602001906118b4929190611b5c565b506020820151816001015560408201518160020160006101000a81548163ffffffff021916908363ffffffff16021790555060608201518160020160046101000a81548163ffffffff021916908363ffffffff16021790555060808201518160020160086101000a81548161ffff021916908361ffff16021790555060a082015181600201600a6101000a81548161ffff021916908361ffff1602179055505050336005600083815260200190815260200160002060006101000a81548173ffffffffffffffffffffffffffffffffffffffff021916908373ffffffffffffffffffffffffffffffffffffffff1602179055506119fa6001600660003373ffffffffffffffffffffffffffffffffffffffff1673ffffffffffffffffffffffffffffffffffffffff16815260200190815260200160002054611b3090919063ffffffff16565b600660003373ffffffffffffffffffffffffffffffffffffffff1673ffffffffffffffffffffffffffffffffffffffff168152602001908152602001600020819055507f88f026aacbbecc90c18411df4b1185fd8d9be2470f1962f192bf84a27d0704b7818484604051611a709392919061298b565b60405180910390a1505050565b60006001600954611a8e9190612850565b600981905550814233600954604051602001611aac93929190612a32565b6040516020818303038152906040528051906020012060001c611acf919061266f565b9050919050565b60035442611ae49190612850565b8160020160046101000a81548163ffffffff021916908363ffffffff16021790555050565b6000428260020160049054906101000a900463ffffffff1663ffffffff1611159050919050565b6000808284611b3f9190612850565b905083811015611b5257611b51612a6f565b5b8091505092915050565b828054611b68906124ed565b90600052602060002090601f016020900481019282611b8a5760008555611bd1565b82601f10611ba357805160ff1916838001178555611bd1565b82800160010185558215611bd1579182015b82811115611bd0578251825591602001919060010190611bb5565b5b509050611bde9190611be2565b5090565b5b80821115611bfb576000816000905550600101611be3565b5090565b6000604051905090565b600080fd5b600080fd5b600073ffffffffffffffffffffffffffffffffffffffff82169050919050565b6000611c3e82611c13565b9050919050565b611c4e81611c33565b8114611c5957600080fd5b50565b600081359050611c6b81611c45565b92915050565b600060208284031215611c8757611c86611c09565b5b6000611c9584828501611c5c565b91505092915050565b6000819050919050565b611cb181611c9e565b82525050565b6000602082019050611ccc6000830184611ca8565b92915050565b611cdb81611c9e565b8114611ce657600080fd5b50565b600081359050611cf881611cd2565b92915050565b600060208284031215611d1457611d13611c09565b5b6000611d2284828501611ce9565b91505092915050565b60008060408385031215611d4257611d41611c09565b5b6000611d5085828601611ce9565b9250506020611d6185828601611ce9565b9150509250929050565b600081519050919050565b600082825260208201905092915050565b60005b83811015611da5578082015181840152602081019050611d8a565b83811115611db4576000848401525b50505050565b6000601f19601f8301169050919050565b6000611dd682611d6b565b611de08185611d76565b9350611df0818560208601611d87565b611df981611dba565b840191505092915050565b600063ffffffff82169050919050565b611e1d81611e04565b82525050565b600061ffff82169050919050565b611e3a81611e23565b82525050565b600060c0820190508181036000830152611e5a8189611dcb565b9050611e696020830188611ca8565b611e766040830187611e14565b611e836060830186611e14565b611e906080830185611e31565b611e9d60a0830184611e31565b979650505050505050565b600081519050919050565b600082825260208201905092915050565b6000819050602082019050919050565b611edd81611c9e565b82525050565b6000611eef8383611ed4565b60208301905092915050565b6000602082019050919050565b6000611f1382611ea8565b611f1d8185611eb3565b9350611f2883611ec4565b8060005b83811015611f59578151611f408882611ee3565b9750611f4b83611efb565b925050600181019050611f2c565b5085935050505092915050565b60006020820190508181036000830152611f808184611f08565b905092915050565b611f9181611c33565b82525050565b6000602082019050611fac6000830184611f88565b92915050565b600080fd5b600080fd5b7f4e487b7100000000000000000000000000000000000000000000000000000000600052604160045260246000fd5b611ff482611dba565b810181811067ffffffffffffffff8211171561201357612012611fbc565b5b80604052505050565b6000612026611bff565b90506120328282611feb565b919050565b600067ffffffffffffffff82111561205257612051611fbc565b5b61205b82611dba565b9050602081019050919050565b82818337600083830152505050565b600061208a61208584612037565b61201c565b9050828152602081018484840111156120a6576120a5611fb7565b5b6120b1848285612068565b509392505050565b600082601f8301126120ce576120cd611fb2565b5b81356120de848260208601612077565b91505092915050565b6000602082840312156120fd576120fc611c09565b5b600082013567ffffffffffffffff81111561211b5761211a611c0e565b5b612127848285016120b9565b91505092915050565b60008115159050919050565b61214581612130565b82525050565b6000602082019050612160600083018461213c565b92915050565b6000806040838503121561217d5761217c611c09565b5b600061218b85828601611ce9565b925050602083013567ffffffffffffffff8111156121ac576121ab611c0e565b5b6121b8858286016120b9565b9150509250929050565b7f4e487b7100000000000000000000000000000000000000000000000000000000600052603260045260246000fd5b7f5a6f6d626965206c6576656c206973206e6f742073756666696369656e740000600082015250565b6000612227601e83611d76565b9150612232826121f1565b602082019050919050565b600060208201905081810360008301526122568161221a565b9050919050565b7f4e6f7420746865206f776e6572206f6620746865207a6f6d6269650000000000600082015250565b6000612293601b83611d76565b915061229e8261225d565b602082019050919050565b600060208201905081810360008301526122c281612286565b9050919050565b7f496e636f7272656374206665652070726f766964656400000000000000000000600082015250565b60006122ff601683611d76565b915061230a826122c9565b602082019050919050565b6000602082019050818103600083015261232e816122f2565b9050919050565b7f4e487b7100000000000000000000000000000000000000000000000000000000600052601160045260246000fd5b600061236f82611e04565b915061237a83611e04565b92508263ffffffff0382111561239357612392612335565b5b828201905092915050565b6123a781612130565b81146123b257600080fd5b50565b6000815190506123c48161239e565b92915050565b6000815190506123d981611cd2565b92915050565b6000806000806000806000806000806101408b8d03121561240357612402611c09565b5b60006124118d828e016123b5565b9a505060206124228d828e016123b5565b99505060406124338d828e016123ca565b98505060606124448d828e016123ca565b97505060806124558d828e016123ca565b96505060a06124668d828e016123ca565b95505060c06124778d828e016123ca565b94505060e06124888d828e016123ca565b93505061010061249a8d828e016123ca565b9250506101206124ac8d828e016123ca565b9150509295989b9194979a5092959850565b7f4e487b7100000000000000000000000000000000000000000000000000000000600052602260045260246000fd5b6000600282049050600182168061250557607f821691505b60208210811415612519576125186124be565b5b50919050565b7f4e6f7420746865206f776e657200000000000000000000000000000000000000600082015250565b6000612555600d83611d76565b91506125608261251f565b602082019050919050565b6000602082019050818103600083015261258481612548565b9050919050565b600061259682611c9e565b91507fffffffffffffffffffffffffffffffffffffffffffffffffffffffffffffffff8214156125c9576125c8612335565b5b600182019050919050565b7f596f752063616e206f6e6c7920637265617465206f6e65207a6f6d6269650000600082015250565b600061260a601e83611d76565b9150612615826125d4565b602082019050919050565b60006020820190508181036000830152612639816125fd565b9050919050565b7f4e487b7100000000000000000000000000000000000000000000000000000000600052601260045260246000fd5b600061267a82611c9e565b915061268583611c9e565b92508261269557612694612640565b5b828206905092915050565b60006126ab82611c9e565b91506126b683611c9e565b9250828210156126c9576126c8612335565b5b828203905092915050565b7f546172676574207a6f6d62696520646f6573206e6f7420657869737400000000600082015250565b600061270a601c83611d76565b9150612715826126d4565b602082019050919050565b60006020820190508181036000830152612739816126fd565b9050919050565b600061274b82611e23565b915061275683611e23565b92508261ffff0382111561276d5761276c612335565b5b828201905092915050565b7f496e76616c6964206e6577206f776e6572000000000000000000000000000000600082015250565b60006127ae601183611d76565b91506127b982612778565b602082019050919050565b600060208201905081810360008301526127dd816127a1565b9050919050565b7f5a6f6d626965206973206e6f7420726561647900000000000000000000000000600082015250565b600061281a601383611d76565b9150612825826127e4565b602082019050919050565b600060208201905081810360008301526128498161280d565b9050919050565b600061285b82611c9e565b915061286683611c9e565b9250827fffffffffffffffffffffffffffffffffffffffffffffffffffffffffffffffff0382111561289b5761289a612335565b5b828201905092915050565b60006128b182611c9e565b91506128bc83611c9e565b9250826128cc576128cb612640565b5b828204905092915050565b600081905092915050565b7f6b69747479000000000000000000000000000000000000000000000000000000600082015250565b60006129186005836128d7565b9150612923826128e2565b600582019050919050565b60006129398261290b565b9150819050919050565b600061294e82611d6b565b61295881856128d7565b9350612968818560208601611d87565b80840191505092915050565b60006129808284612943565b915081905092915050565b60006060820190506129a06000830186611ca8565b81810360208301526129b28185611dcb565b90506129c16040830184611ca8565b949350505050565b6000819050919050565b6129e46129df82611c9e565b6129c9565b82525050565b60008160601b9050919050565b6000612a02826129ea565b9050919050565b6000612a14826129f7565b9050919050565b612a2c612a2782611c33565b612a09565b82525050565b6000612a3e82866129d3565b602082019150612a4e8285612a1b565b601482019150612a5e82846129d3565b602082019150819050949350505050565b7f4e487b7100000000000000000000000000000000000000000000000000000000600052600160045260246000fdfea26469706673582212202203f783dc73949f515a470971ac486e53a728e2144ed7870f7b142850d2359c64736f6c634300080a0033",
  "immutableReferences": {},
  "source": "// SPDX-License-Identifier: MIT\npragma solidity ^0.8.10;\n\nimport \"./zombiehelper.sol\";\n\ncontract ZombieAttack is ZombieHelper {\n    uint private randNonce = 0;\n    uint public attackVictoryProbability = 70;\n\n    function randMod(uint _modulus) internal returns(uint) {\n        randNonce = randNonce + 1;\n        return uint(keccak256(abi.encodePacked(block.timestamp, msg.sender, randNonce))) % _modulus;\n    }\n\n    function attack(uint _zombieId, uint _targetId) external onlyOwnerOf(_zombieId) {\n        require(zombies[_targetId].level > 0, \"Target zombie does not exist\");\n\n        Zombie storage myZombie = zombies[_zombieId];\n        Zombie storage enemyZombie = zombies[_targetId];\n\n        uint rand = randMod(100);\n        if (rand <= attackVictoryProbability) {\n            myZombie.winCount = myZombie.winCount + 1;\n            myZombie.level = myZombie.level + 1;\n            enemyZombie.lossCount = enemyZombie.lossCount + 1;\n            feedAndMultiply(_zombieId, enemyZombie.dna, \"zombie\");\n        } else {\n            myZombie.lossCount = myZombie.lossCount + 1;\n            enemyZombie.winCount = enemyZombie.winCount + 1;\n            _triggerCooldown(myZombie);\n        }\n    }\n}\n",
  "sourcePath": "C:\\Users\\SK2712\\OneDrive - Cal State Fullerton\\Desktop\\MidtermProj\\Cryptozombie demo package\\contracts\\zombieattack.sol",
  "compiler": {
    "name": "solc",
    "version": "0.8.10+commit.fc410830.Emscripten.clang"
  },
  "schemaVersion": "3.4.16",
  "updatedAt": "2024-03-12T23:28:45.939Z",
  "networkType": "ethereum",
  "devdoc": {
    "kind": "dev",
    "methods": {},
    "version": 1
  },
  "userdoc": {
    "kind": "user",
    "methods": {},
    "version": 1
  }
}