{
  "contractName": "ZombieFactory",
  "abi": [
    {
      "anonymous": false,
      "inputs": [
        {
          "indexed": false,
          "internalType": "uint256",
          "name": "zombieId",
          "type": "uint256"
        },
        {
          "indexed": false,
          "internalType": "string",
          "name": "name",
          "type": "string"
        },
        {
          "indexed": false,
          "internalType": "uint256",
          "name": "dna",
          "type": "uint256"
        }
      ],
      "name": "NewZombie",
      "type": "event"
    },
    {
      "anonymous": false,
      "inputs": [
        {
          "indexed": true,
          "internalType": "address",
          "name": "previousOwner",
          "type": "address"
        },
        {
          "indexed": true,
          "internalType": "address",
          "name": "newOwner",
          "type": "address"
        }
      ],
      "name": "OwnershipTransferred",
      "type": "event"
    },
    {
      "inputs": [],
      "name": "cooldownTime",
      "outputs": [
        {
          "internalType": "uint256",
          "name": "",
          "type": "uint256"
        }
      ],
      "stateMutability": "view",
      "type": "function",
      "constant": true
    },
    {
      "inputs": [],
      "name": "dnaDigits",
      "outputs": [
        {
          "internalType": "uint256",
          "name": "",
          "type": "uint256"
        }
      ],
      "stateMutability": "view",
      "type": "function",
      "constant": true
    },
    {
      "inputs": [],
      "name": "dnaModulus",
      "outputs": [
        {
          "internalType": "uint256",
          "name": "",
          "type": "uint256"
        }
      ],
      "stateMutability": "view",
      "type": "function",
      "constant": true
    },
    {
      "inputs": [],
      "name": "isOwner",
      "outputs": [
        {
          "internalType": "bool",
          "name": "",
          "type": "bool"
        }
      ],
      "stateMutability": "view",
      "type": "function",
      "constant": true
    },
    {
      "inputs": [],
      "name": "owner",
      "outputs": [
        {
          "internalType": "address",
          "name": "",
          "type": "address"
        }
      ],
      "stateMutability": "view",
      "type": "function",
      "constant": true
    },
    {
      "inputs": [
        {
          "internalType": "address",
          "name": "",
          "type": "address"
        }
      ],
      "name": "ownerZombieCount",
      "outputs": [
        {
          "internalType": "uint256",
          "name": "",
          "type": "uint256"
        }
      ],
      "stateMutability": "view",
      "type": "function",
      "constant": true
    },
    {
      "inputs": [],
      "name": "renounceOwnership",
      "outputs": [],
      "stateMutability": "nonpayable",
      "type": "function"
    },
    {
      "inputs": [
        {
          "internalType": "address",
          "name": "newOwner",
          "type": "address"
        }
      ],
      "name": "transferOwnership",
      "outputs": [],
      "stateMutability": "nonpayable",
      "type": "function"
    },
    {
      "inputs": [
        {
          "internalType": "uint256",
          "name": "",
          "type": "uint256"
        }
      ],
      "name": "zombieToOwner",
      "outputs": [
        {
          "internalType": "address",
          "name": "",
          "type": "address"
        }
      ],
      "stateMutability": "view",
      "type": "function",
      "constant": true
    },
    {
      "inputs": [
        {
          "internalType": "uint256",
          "name": "",
          "type": "uint256"
        }
      ],
      "name": "zombies",
      "outputs": [
        {
          "internalType": "string",
          "name": "name",
          "type": "string"
        },
        {
          "internalType": "uint256",
          "name": "dna",
          "type": "uint256"
        },
        {
          "internalType": "uint32",
          "name": "level",
          "type": "uint32"
        },
        {
          "internalType": "uint32",
          "name": "readyTime",
          "type": "uint32"
        },
        {
          "internalType": "uint16",
          "name": "winCount",
          "type": "uint16"
        },
        {
          "internalType": "uint16",
          "name": "lossCount",
          "type": "uint16"
        }
      ],
      "stateMutability": "view",
      "type": "function",
      "constant": true
    },
    {
      "inputs": [
        {
          "internalType": "string",
          "name": "_name",
          "type": "string"
        }
      ],
      "name": "createRandomZombie",
      "outputs": [],
      "stateMutability": "nonpayable",
      "type": "function"
    }
  ],
  "bytecode": "0x60806040526010600155600154600a6200001a919062000280565b600255620151806003553480156200003157600080fd5b50336000806101000a81548173ffffffffffffffffffffffffffffffffffffffff021916908373ffffffffffffffffffffffffffffffffffffffff16021790555060008054906101000a900473ffffffffffffffffffffffffffffffffffffffff1673ffffffffffffffffffffffffffffffffffffffff16600073ffffffffffffffffffffffffffffffffffffffff167f8be0079c531659141344cd1fd0a4f28419497f9722a3daafe3b4186f6b6457e060405160405180910390a3620002d1565b7f4e487b7100000000000000000000000000000000000000000000000000000000600052601160045260246000fd5b60008160011c9050919050565b6000808291508390505b60018511156200018157808604811115620001595762000158620000f3565b5b6001851615620001695780820291505b8081029050620001798562000122565b945062000139565b94509492505050565b6000826200019c57600190506200026f565b81620001ac57600090506200026f565b8160018114620001c55760028114620001d05762000206565b60019150506200026f565b60ff841115620001e557620001e4620000f3565b5b8360020a915084821115620001ff57620001fe620000f3565b5b506200026f565b5060208310610133831016604e8410600b8410161715620002405782820a9050838111156200023a5762000239620000f3565b5b6200026f565b6200024f84848460016200012f565b92509050818404811115620002695762000268620000f3565b5b81810290505b9392505050565b6000819050919050565b60006200028d8262000276565b91506200029a8362000276565b9250620002c97fffffffffffffffffffffffffffffffffffffffffffffffffffffffffffffffff84846200018a565b905092915050565b6112b280620002e16000396000f3fe608060405234801561001057600080fd5b50600436106100a95760003560e01c80637bff0a01116100715780637bff0a011461016b5780638da5cb5b146101875780638f32d59b146101a5578063b319c6b7146101c3578063daba0711146101e1578063f2fde38b146101ff576100a9565b806301afd7e1146100ae5780632052465e146100de578063528b7b8f14610113578063692c662714610143578063715018a614610161575b600080fd5b6100c860048036038101906100c39190610b29565b61021b565b6040516100d59190610b6f565b60405180910390f35b6100f860048036038101906100f39190610bb6565b610233565b60405161010a96959493929190610cb8565b60405180910390f35b61012d60048036038101906101289190610bb6565b610343565b60405161013a9190610d2f565b60405180910390f35b61014b610376565b6040516101589190610b6f565b60405180910390f35b61016961037c565b005b61018560048036038101906101809190610e7f565b610481565b005b61018f610538565b60405161019c9190610d2f565b60405180910390f35b6101ad610561565b6040516101ba9190610ee3565b60405180910390f35b6101cb6105b8565b6040516101d89190610b6f565b60405180910390f35b6101e96105be565b6040516101f69190610b6f565b60405180910390f35b61021960048036038101906102149190610b29565b6105c4565b005b60066020528060005260406000206000915090505481565b6004818154811061024357600080fd5b906000526020600020906003020160009150905080600001805461026690610f2d565b80601f016020809104026020016040519081016040528092919081815260200182805461029290610f2d565b80156102df5780601f106102b4576101008083540402835291602001916102df565b820191906000526020600020905b8154815290600101906020018083116102c257829003601f168201915b5050505050908060010154908060020160009054906101000a900463ffffffff16908060020160049054906101000a900463ffffffff16908060020160089054906101000a900461ffff169080600201600a9054906101000a900461ffff16905086565b60056020528060005260406000206000915054906101000a900473ffffffffffffffffffffffffffffffffffffffff1681565b60015481565b610384610561565b6103c3576040517f08c379a00000000000000000000000000000000000000000000000000000000081526004016103ba90610fab565b60405180910390fd5b600073ffffffffffffffffffffffffffffffffffffffff1660008054906101000a900473ffffffffffffffffffffffffffffffffffffffff1673ffffffffffffffffffffffffffffffffffffffff167f8be0079c531659141344cd1fd0a4f28419497f9722a3daafe3b4186f6b6457e060405160405180910390a360008060006101000a81548173ffffffffffffffffffffffffffffffffffffffff021916908373ffffffffffffffffffffffffffffffffffffffff160217905550565b6000600660003373ffffffffffffffffffffffffffffffffffffffff1673ffffffffffffffffffffffffffffffffffffffff1681526020019081526020016000205414610503576040517f08c379a00000000000000000000000000000000000000000000000000000000081526004016104fa90611017565b60405180910390fd5b600061050e82610738565b905060648161051d9190611066565b8161052891906110c6565b9050610534828261077d565b5050565b60008060009054906101000a900473ffffffffffffffffffffffffffffffffffffffff16905090565b60008060009054906101000a900473ffffffffffffffffffffffffffffffffffffffff1673ffffffffffffffffffffffffffffffffffffffff163373ffffffffffffffffffffffffffffffffffffffff1614905090565b60035481565b60025481565b6105cc610561565b61060b576040517f08c379a000000000000000000000000000000000000000000000000000000000815260040161060290610fab565b60405180910390fd5b600073ffffffffffffffffffffffffffffffffffffffff168173ffffffffffffffffffffffffffffffffffffffff16141561067b576040517f08c379a000000000000000000000000000000000000000000000000000000000815260040161067290611146565b60405180910390fd5b8073ffffffffffffffffffffffffffffffffffffffff1660008054906101000a900473ffffffffffffffffffffffffffffffffffffffff1673ffffffffffffffffffffffffffffffffffffffff167f8be0079c531659141344cd1fd0a4f28419497f9722a3daafe3b4186f6b6457e060405160405180910390a3806000806101000a81548173ffffffffffffffffffffffffffffffffffffffff021916908373ffffffffffffffffffffffffffffffffffffffff16021790555050565b6000808260405160200161074c91906111a2565b6040516020818303038152906040528051906020012060001c9050600254816107759190611066565b915050919050565b6000600480549050905060046040518060c00160405280858152602001848152602001600163ffffffff168152602001600354426107bb91906111b9565b63ffffffff168152602001600061ffff168152602001600061ffff168152509080600181540180825580915050600190039060005260206000209060030201600090919091909150600082015181600001908051906020019061081f929190610a14565b506020820151816001015560408201518160020160006101000a81548163ffffffff021916908363ffffffff16021790555060608201518160020160046101000a81548163ffffffff021916908363ffffffff16021790555060808201518160020160086101000a81548161ffff021916908361ffff16021790555060a082015181600201600a6101000a81548161ffff021916908361ffff1602179055505050336005600083815260200190815260200160002060006101000a81548173ffffffffffffffffffffffffffffffffffffffff021916908373ffffffffffffffffffffffffffffffffffffffff1602179055506109656001600660003373ffffffffffffffffffffffffffffffffffffffff1673ffffffffffffffffffffffffffffffffffffffff168152602001908152602001600020546109e890919063ffffffff16565b600660003373ffffffffffffffffffffffffffffffffffffffff1673ffffffffffffffffffffffffffffffffffffffff168152602001908152602001600020819055507f88f026aacbbecc90c18411df4b1185fd8d9be2470f1962f192bf84a27d0704b78184846040516109db9392919061120f565b60405180910390a1505050565b60008082846109f791906111b9565b905083811015610a0a57610a0961124d565b5b8091505092915050565b828054610a2090610f2d565b90600052602060002090601f016020900481019282610a425760008555610a89565b82601f10610a5b57805160ff1916838001178555610a89565b82800160010185558215610a89579182015b82811115610a88578251825591602001919060010190610a6d565b5b509050610a969190610a9a565b5090565b5b80821115610ab3576000816000905550600101610a9b565b5090565b6000604051905090565b600080fd5b600080fd5b600073ffffffffffffffffffffffffffffffffffffffff82169050919050565b6000610af682610acb565b9050919050565b610b0681610aeb565b8114610b1157600080fd5b50565b600081359050610b2381610afd565b92915050565b600060208284031215610b3f57610b3e610ac1565b5b6000610b4d84828501610b14565b91505092915050565b6000819050919050565b610b6981610b56565b82525050565b6000602082019050610b846000830184610b60565b92915050565b610b9381610b56565b8114610b9e57600080fd5b50565b600081359050610bb081610b8a565b92915050565b600060208284031215610bcc57610bcb610ac1565b5b6000610bda84828501610ba1565b91505092915050565b600081519050919050565b600082825260208201905092915050565b60005b83811015610c1d578082015181840152602081019050610c02565b83811115610c2c576000848401525b50505050565b6000601f19601f8301169050919050565b6000610c4e82610be3565b610c588185610bee565b9350610c68818560208601610bff565b610c7181610c32565b840191505092915050565b600063ffffffff82169050919050565b610c9581610c7c565b82525050565b600061ffff82169050919050565b610cb281610c9b565b82525050565b600060c0820190508181036000830152610cd28189610c43565b9050610ce16020830188610b60565b610cee6040830187610c8c565b610cfb6060830186610c8c565b610d086080830185610ca9565b610d1560a0830184610ca9565b979650505050505050565b610d2981610aeb565b82525050565b6000602082019050610d446000830184610d20565b92915050565b600080fd5b600080fd5b7f4e487b7100000000000000000000000000000000000000000000000000000000600052604160045260246000fd5b610d8c82610c32565b810181811067ffffffffffffffff82111715610dab57610daa610d54565b5b80604052505050565b6000610dbe610ab7565b9050610dca8282610d83565b919050565b600067ffffffffffffffff821115610dea57610de9610d54565b5b610df382610c32565b9050602081019050919050565b82818337600083830152505050565b6000610e22610e1d84610dcf565b610db4565b905082815260208101848484011115610e3e57610e3d610d4f565b5b610e49848285610e00565b509392505050565b600082601f830112610e6657610e65610d4a565b5b8135610e76848260208601610e0f565b91505092915050565b600060208284031215610e9557610e94610ac1565b5b600082013567ffffffffffffffff811115610eb357610eb2610ac6565b5b610ebf84828501610e51565b91505092915050565b60008115159050919050565b610edd81610ec8565b82525050565b6000602082019050610ef86000830184610ed4565b92915050565b7f4e487b7100000000000000000000000000000000000000000000000000000000600052602260045260246000fd5b60006002820490506001821680610f4557607f821691505b60208210811415610f5957610f58610efe565b5b50919050565b7f4e6f7420746865206f776e657200000000000000000000000000000000000000600082015250565b6000610f95600d83610bee565b9150610fa082610f5f565b602082019050919050565b60006020820190508181036000830152610fc481610f88565b9050919050565b7f596f752063616e206f6e6c7920637265617465206f6e65207a6f6d6269650000600082015250565b6000611001601e83610bee565b915061100c82610fcb565b602082019050919050565b6000602082019050818103600083015261103081610ff4565b9050919050565b7f4e487b7100000000000000000000000000000000000000000000000000000000600052601260045260246000fd5b600061107182610b56565b915061107c83610b56565b92508261108c5761108b611037565b5b828206905092915050565b7f4e487b7100000000000000000000000000000000000000000000000000000000600052601160045260246000fd5b60006110d182610b56565b91506110dc83610b56565b9250828210156110ef576110ee611097565b5b828203905092915050565b7f496e76616c6964206e6577206f776e6572000000000000000000000000000000600082015250565b6000611130601183610bee565b915061113b826110fa565b602082019050919050565b6000602082019050818103600083015261115f81611123565b9050919050565b600081905092915050565b600061117c82610be3565b6111868185611166565b9350611196818560208601610bff565b80840191505092915050565b60006111ae8284611171565b915081905092915050565b60006111c482610b56565b91506111cf83610b56565b9250827fffffffffffffffffffffffffffffffffffffffffffffffffffffffffffffffff0382111561120457611203611097565b5b828201905092915050565b60006060820190506112246000830186610b60565b81810360208301526112368185610c43565b90506112456040830184610b60565b949350505050565b7f4e487b7100000000000000000000000000000000000000000000000000000000600052600160045260246000fdfea26469706673582212200e5e3cc2cee5e6dee4b8e8674686a8fbc9c03a7c6cfbee03af7c64f493698d3664736f6c634300080a0033",
  "immutableReferences": {},
  "source": "// SPDX-License-Identifier: MIT\npragma solidity ^0.8.10;\n\nimport \"./Ownable.sol\";\nimport \"./SafeMath.sol\";\n\ncontract ZombieFactory is Ownable {\n    using SafeMath for uint256;\n\n    event NewZombie(uint256 zombieId, string name, uint256 dna);\n\n    uint256 public dnaDigits = 16;\n    uint256 public dnaModulus = 10**dnaDigits;\n    uint256 public cooldownTime = 1 days;\n\n    struct Zombie {\n        string name;\n        uint256 dna;\n        uint32 level;\n        uint32 readyTime;\n        uint16 winCount;\n        uint16 lossCount;\n    }\n\n    Zombie[] public zombies;\n\n    mapping(uint256 => address) public zombieToOwner;\n    mapping(address => uint256) public ownerZombieCount;\n\n    function _createZombie(string memory _name, uint256 _dna) internal {\n        uint256 id = zombies.length;\n        zombies.push(\n            Zombie({\n                name: _name,\n                dna: _dna,\n                level: 1,\n                readyTime: uint32(block.timestamp + cooldownTime),\n                winCount: 0,\n                lossCount: 0\n            })\n        );\n        zombieToOwner[id] = msg.sender;\n        ownerZombieCount[msg.sender] = ownerZombieCount[msg.sender].add(1);\n        emit NewZombie(id, _name, _dna);\n    }\n\n    function _generateRandomDna(string memory _str) private view returns (uint256) {\n        uint256 rand = uint256(keccak256(abi.encodePacked(_str)));\n        return rand % dnaModulus;\n    }\n\n    function createRandomZombie(string memory _name) public {\n        require(ownerZombieCount[msg.sender] == 0, \"You can only create one zombie\");\n        uint256 randDna = _generateRandomDna(_name);\n        randDna = randDna - (randDna % 100);\n        _createZombie(_name, randDna);\n    }\n}\n",
  "sourcePath": "C:\\Users\\SK2712\\OneDrive - Cal State Fullerton\\Desktop\\MidtermProj\\Cryptozombie demo package\\contracts\\zombiefactory.sol",
  "compiler": {
    "name": "solc",
    "version": "0.8.10+commit.fc410830.Emscripten.clang"
  },
  "schemaVersion": "3.4.16",
  "updatedAt": "2024-03-12T23:28:45.881Z",
  "networkType": "ethereum",
  "devdoc": {
    "kind": "dev",
    "methods": {},
    "version": 1
  },
  "userdoc": {
    "kind": "user",
    "methods": {},
    "version": 1
  }
}