{
  "contractName": "ZombieHelper",
  "abi": [
    {
      "anonymous": false,
      "inputs": [
        {
          "indexed": false,
          "internalType": "uint256",
          "name": "zombieId",
          "type": "uint256"
        },
        {
          "indexed": false,
          "internalType": "string",
          "name": "name",
          "type": "string"
        },
        {
          "indexed": false,
          "internalType": "uint256",
          "name": "dna",
          "type": "uint256"
        }
      ],
      "name": "NewZombie",
      "type": "event"
    },
    {
      "anonymous": false,
      "inputs": [
        {
          "indexed": true,
          "internalType": "address",
          "name": "previousOwner",
          "type": "address"
        },
        {
          "indexed": true,
          "internalType": "address",
          "name": "newOwner",
          "type": "address"
        }
      ],
      "name": "OwnershipTransferred",
      "type": "event"
    },
    {
      "inputs": [],
      "name": "cooldownTime",
      "outputs": [
        {
          "internalType": "uint256",
          "name": "",
          "type": "uint256"
        }
      ],
      "stateMutability": "view",
      "type": "function",
      "constant": true
    },
    {
      "inputs": [
        {
          "internalType": "string",
          "name": "_name",
          "type": "string"
        }
      ],
      "name": "createRandomZombie",
      "outputs": [],
      "stateMutability": "nonpayable",
      "type": "function"
    },
    {
      "inputs": [],
      "name": "dnaDigits",
      "outputs": [
        {
          "internalType": "uint256",
          "name": "",
          "type": "uint256"
        }
      ],
      "stateMutability": "view",
      "type": "function",
      "constant": true
    },
    {
      "inputs": [],
      "name": "dnaModulus",
      "outputs": [
        {
          "internalType": "uint256",
          "name": "",
          "type": "uint256"
        }
      ],
      "stateMutability": "view",
      "type": "function",
      "constant": true
    },
    {
      "inputs": [
        {
          "internalType": "uint256",
          "name": "_zombieId",
          "type": "uint256"
        },
        {
          "internalType": "uint256",
          "name": "_kittyId",
          "type": "uint256"
        }
      ],
      "name": "feedOnKitty",
      "outputs": [],
      "stateMutability": "nonpayable",
      "type": "function"
    },
    {
      "inputs": [],
      "name": "isOwner",
      "outputs": [
        {
          "internalType": "bool",
          "name": "",
          "type": "bool"
        }
      ],
      "stateMutability": "view",
      "type": "function",
      "constant": true
    },
    {
      "inputs": [],
      "name": "levelUpFee",
      "outputs": [
        {
          "internalType": "uint256",
          "name": "",
          "type": "uint256"
        }
      ],
      "stateMutability": "view",
      "type": "function",
      "constant": true
    },
    {
      "inputs": [],
      "name": "owner",
      "outputs": [
        {
          "internalType": "address",
          "name": "",
          "type": "address"
        }
      ],
      "stateMutability": "view",
      "type": "function",
      "constant": true
    },
    {
      "inputs": [
        {
          "internalType": "address",
          "name": "",
          "type": "address"
        }
      ],
      "name": "ownerZombieCount",
      "outputs": [
        {
          "internalType": "uint256",
          "name": "",
          "type": "uint256"
        }
      ],
      "stateMutability": "view",
      "type": "function",
      "constant": true
    },
    {
      "inputs": [],
      "name": "renounceOwnership",
      "outputs": [],
      "stateMutability": "nonpayable",
      "type": "function"
    },
    {
      "inputs": [
        {
          "internalType": "address",
          "name": "_address",
          "type": "address"
        }
      ],
      "name": "setKittyContractAddress",
      "outputs": [],
      "stateMutability": "nonpayable",
      "type": "function"
    },
    {
      "inputs": [
        {
          "internalType": "address",
          "name": "newOwner",
          "type": "address"
        }
      ],
      "name": "transferOwnership",
      "outputs": [],
      "stateMutability": "nonpayable",
      "type": "function"
    },
    {
      "inputs": [
        {
          "internalType": "uint256",
          "name": "",
          "type": "uint256"
        }
      ],
      "name": "zombieToOwner",
      "outputs": [
        {
          "internalType": "address",
          "name": "",
          "type": "address"
        }
      ],
      "stateMutability": "view",
      "type": "function",
      "constant": true
    },
    {
      "inputs": [
        {
          "internalType": "uint256",
          "name": "",
          "type": "uint256"
        }
      ],
      "name": "zombies",
      "outputs": [
        {
          "internalType": "string",
          "name": "name",
          "type": "string"
        },
        {
          "internalType": "uint256",
          "name": "dna",
          "type": "uint256"
        },
        {
          "internalType": "uint32",
          "name": "level",
          "type": "uint32"
        },
        {
          "internalType": "uint32",
          "name": "readyTime",
          "type": "uint32"
        },
        {
          "internalType": "uint16",
          "name": "winCount",
          "type": "uint16"
        },
        {
          "internalType": "uint16",
          "name": "lossCount",
          "type": "uint16"
        }
      ],
      "stateMutability": "view",
      "type": "function",
      "constant": true
    },
    {
      "inputs": [],
      "name": "withdraw",
      "outputs": [],
      "stateMutability": "nonpayable",
      "type": "function"
    },
    {
      "inputs": [
        {
          "internalType": "uint256",
          "name": "_fee",
          "type": "uint256"
        }
      ],
      "name": "setLevelUpFee",
      "outputs": [],
      "stateMutability": "nonpayable",
      "type": "function"
    },
    {
      "inputs": [
        {
          "internalType": "uint256",
          "name": "_zombieId",
          "type": "uint256"
        }
      ],
      "name": "levelUp",
      "outputs": [],
      "stateMutability": "payable",
      "type": "function",
      "payable": true
    },
    {
      "inputs": [
        {
          "internalType": "uint256",
          "name": "_zombieId",
          "type": "uint256"
        },
        {
          "internalType": "string",
          "name": "_newName",
          "type": "string"
        }
      ],
      "name": "changeName",
      "outputs": [],
      "stateMutability": "nonpayable",
      "type": "function"
    },
    {
      "inputs": [
        {
          "internalType": "uint256",
          "name": "_zombieId",
          "type": "uint256"
        },
        {
          "internalType": "uint256",
          "name": "_newDna",
          "type": "uint256"
        }
      ],
      "name": "changeDna",
      "outputs": [],
      "stateMutability": "nonpayable",
      "type": "function"
    },
    {
      "inputs": [
        {
          "internalType": "address",
          "name": "_owner",
          "type": "address"
        }
      ],
      "name": "getZombiesByOwner",
      "outputs": [
        {
          "internalType": "uint256[]",
          "name": "",
          "type": "uint256[]"
        }
      ],
      "stateMutability": "view",
      "type": "function",
      "constant": true
    }
  ],
  "bytecode": "0x60806040526010600155600154600a6200001a91906200028b565b6002556201518060035566038d7ea4c680006008553480156200003c57600080fd5b50336000806101000a81548173ffffffffffffffffffffffffffffffffffffffff021916908373ffffffffffffffffffffffffffffffffffffffff16021790555060008054906101000a900473ffffffffffffffffffffffffffffffffffffffff1673ffffffffffffffffffffffffffffffffffffffff16600073ffffffffffffffffffffffffffffffffffffffff167f8be0079c531659141344cd1fd0a4f28419497f9722a3daafe3b4186f6b6457e060405160405180910390a3620002dc565b7f4e487b7100000000000000000000000000000000000000000000000000000000600052601160045260246000fd5b60008160011c9050919050565b6000808291508390505b60018511156200018c57808604811115620001645762000163620000fe565b5b6001851615620001745780820291505b808102905062000184856200012d565b945062000144565b94509492505050565b600082620001a757600190506200027a565b81620001b757600090506200027a565b8160018114620001d05760028114620001db5762000211565b60019150506200027a565b60ff841115620001f057620001ef620000fe565b5b8360020a9150848211156200020a5762000209620000fe565b5b506200027a565b5060208310610133831016604e8410600b84101617156200024b5782820a905083811115620002455762000244620000fe565b5b6200027a565b6200025a84848460016200013a565b92509050818404811115620002745762000273620000fe565b5b81810290505b9392505050565b6000819050919050565b6000620002988262000281565b9150620002a58362000281565b9250620002d47fffffffffffffffffffffffffffffffffffffffffffffffffffffffffffffffff848462000195565b905092915050565b6125ac80620002ec6000396000f3fe60806040526004361061011f5760003560e01c8063715018a6116100a0578063c39cbef111610064578063c39cbef1146103b7578063c4114b12146103e0578063ccf670f81461040b578063daba071114610434578063f2fde38b1461045f5761011f565b8063715018a6146102f65780637bff0a011461030d5780638da5cb5b146103365780638f32d59b14610361578063b319c6b71461038c5761011f565b80634412e104116100e75780634412e104146101ff578063528b7b8f1461023c5780635f4623f1146102795780635faf2880146102a2578063692c6627146102cb5761011f565b806301afd7e1146101245780630ce90ec21461016157806317a7f4cc1461017d5780632052465e146101a65780633ccfd60b146101e8575b600080fd5b34801561013057600080fd5b5061014b60048036038101906101469190611893565b610488565b60405161015891906118d9565b60405180910390f35b61017b60048036038101906101769190611920565b6104a0565b005b34801561018957600080fd5b506101a4600480360381019061019f919061194d565b610692565b005b3480156101b257600080fd5b506101cd60048036038101906101c89190611920565b6107b0565b6040516101df96959493929190611a62565b60405180910390f35b3480156101f457600080fd5b506101fd6108c0565b005b34801561020b57600080fd5b5061022660048036038101906102219190611893565b61095d565b6040516102339190611b88565b60405180910390f35b34801561024857600080fd5b50610263600480360381019061025e9190611920565b610ab0565b6040516102709190611bb9565b60405180910390f35b34801561028557600080fd5b506102a0600480360381019061029b9190611893565b610ae3565b005b3480156102ae57600080fd5b506102c960048036038101906102c4919061194d565b610b6e565b005b3480156102d757600080fd5b506102e0610cc2565b6040516102ed91906118d9565b60405180910390f35b34801561030257600080fd5b5061030b610cc8565b005b34801561031957600080fd5b50610334600480360381019061032f9190611d09565b610dcd565b005b34801561034257600080fd5b5061034b610e84565b6040516103589190611bb9565b60405180910390f35b34801561036d57600080fd5b50610376610ead565b6040516103839190611d6d565b60405180910390f35b34801561039857600080fd5b506103a1610f04565b6040516103ae91906118d9565b60405180910390f35b3480156103c357600080fd5b506103de60048036038101906103d99190611d88565b610f0a565b005b3480156103ec57600080fd5b506103f561106e565b60405161040291906118d9565b60405180910390f35b34801561041757600080fd5b50610432600480360381019061042d9190611920565b611074565b005b34801561044057600080fd5b506104496110c5565b60405161045691906118d9565b60405180910390f35b34801561046b57600080fd5b5061048660048036038101906104819190611893565b6110cb565b005b60066020528060005260406000206000915090505481565b60028181600482815481106104b8576104b7611de4565b5b906000526020600020906003020160020160009054906101000a900463ffffffff1663ffffffff161015610521576040517f08c379a000000000000000000000000000000000000000000000000000000000815260040161051890611e5f565b60405180910390fd5b826005600082815260200190815260200160002060009054906101000a900473ffffffffffffffffffffffffffffffffffffffff1673ffffffffffffffffffffffffffffffffffffffff163373ffffffffffffffffffffffffffffffffffffffff16146105c3576040517f08c379a00000000000000000000000000000000000000000000000000000000081526004016105ba90611ecb565b60405180910390fd5b6008543414610607576040517f08c379a00000000000000000000000000000000000000000000000000000000081526004016105fe90611f37565b60405180910390fd5b60016004858154811061061d5761061c611de4565b5b906000526020600020906003020160020160009054906101000a900463ffffffff166106499190611f86565b6004858154811061065d5761065c611de4565b5b906000526020600020906003020160020160006101000a81548163ffffffff021916908363ffffffff16021790555050505050565b6000600760009054906101000a900473ffffffffffffffffffffffffffffffffffffffff1673ffffffffffffffffffffffffffffffffffffffff1663e98b7f4d836040518263ffffffff1660e01b81526004016106ef91906118d9565b61014060405180830381865afa15801561070d573d6000803e3d6000fd5b505050506040513d601f19601f820116820180604052508101906107319190612001565b909192939495969798509091929394959697509091929394959650909192939495509091929394509091929350909192509091509050809150506107ab83826040518060400160405280600581526020017f6b6974747900000000000000000000000000000000000000000000000000000081525061123f565b505050565b600481815481106107c057600080fd5b90600052602060002090600302016000915090508060000180546107e39061210f565b80601f016020809104026020016040519081016040528092919081815260200182805461080f9061210f565b801561085c5780601f106108315761010080835404028352916020019161085c565b820191906000526020600020905b81548152906001019060200180831161083f57829003601f168201915b5050505050908060010154908060020160009054906101000a900463ffffffff16908060020160049054906101000a900463ffffffff16908060020160089054906101000a900461ffff169080600201600a9054906101000a900461ffff16905086565b6108c8610ead565b610907576040517f08c379a00000000000000000000000000000000000000000000000000000000081526004016108fe9061218d565b60405180910390fd5b6000610911610e84565b90508073ffffffffffffffffffffffffffffffffffffffff166108fc479081150290604051600060405180830381858888f19350505050158015610959573d6000803e3d6000fd5b5050565b60606000600660008473ffffffffffffffffffffffffffffffffffffffff1673ffffffffffffffffffffffffffffffffffffffff1681526020019081526020016000205467ffffffffffffffff8111156109ba576109b9611bde565b5b6040519080825280602002602001820160405280156109e85781602001602082028036833780820191505090505b5090506000805b600480549050811015610aa5578473ffffffffffffffffffffffffffffffffffffffff166005600083815260200190815260200160002060009054906101000a900473ffffffffffffffffffffffffffffffffffffffff1673ffffffffffffffffffffffffffffffffffffffff161415610a925780838381518110610a7757610a76611de4565b5b6020026020010181815250508180610a8e906121ad565b9250505b8080610a9d906121ad565b9150506109ef565b508192505050919050565b60056020528060005260406000206000915054906101000a900473ffffffffffffffffffffffffffffffffffffffff1681565b610aeb610ead565b610b2a576040517f08c379a0000000000000000000000000000000000000000000000000000000008152600401610b219061218d565b60405180910390fd5b80600760006101000a81548173ffffffffffffffffffffffffffffffffffffffff021916908373ffffffffffffffffffffffffffffffffffffffff16021790555050565b6014828160048281548110610b8657610b85611de4565b5b906000526020600020906003020160020160009054906101000a900463ffffffff1663ffffffff161015610bef576040517f08c379a0000000000000000000000000000000000000000000000000000000008152600401610be690611e5f565b60405180910390fd5b836005600082815260200190815260200160002060009054906101000a900473ffffffffffffffffffffffffffffffffffffffff1673ffffffffffffffffffffffffffffffffffffffff163373ffffffffffffffffffffffffffffffffffffffff1614610c91576040517f08c379a0000000000000000000000000000000000000000000000000000000008152600401610c8890611ecb565b60405180910390fd5b8360048681548110610ca657610ca5611de4565b5b9060005260206000209060030201600101819055505050505050565b60015481565b610cd0610ead565b610d0f576040517f08c379a0000000000000000000000000000000000000000000000000000000008152600401610d069061218d565b60405180910390fd5b600073ffffffffffffffffffffffffffffffffffffffff1660008054906101000a900473ffffffffffffffffffffffffffffffffffffffff1673ffffffffffffffffffffffffffffffffffffffff167f8be0079c531659141344cd1fd0a4f28419497f9722a3daafe3b4186f6b6457e060405160405180910390a360008060006101000a81548173ffffffffffffffffffffffffffffffffffffffff021916908373ffffffffffffffffffffffffffffffffffffffff160217905550565b6000600660003373ffffffffffffffffffffffffffffffffffffffff1673ffffffffffffffffffffffffffffffffffffffff1681526020019081526020016000205414610e4f576040517f08c379a0000000000000000000000000000000000000000000000000000000008152600401610e4690612242565b60405180910390fd5b6000610e5a82611448565b9050606481610e699190612291565b81610e7491906122c2565b9050610e80828261148d565b5050565b60008060009054906101000a900473ffffffffffffffffffffffffffffffffffffffff16905090565b60008060009054906101000a900473ffffffffffffffffffffffffffffffffffffffff1673ffffffffffffffffffffffffffffffffffffffff163373ffffffffffffffffffffffffffffffffffffffff1614905090565b60035481565b6002828160048281548110610f2257610f21611de4565b5b906000526020600020906003020160020160009054906101000a900463ffffffff1663ffffffff161015610f8b576040517f08c379a0000000000000000000000000000000000000000000000000000000008152600401610f8290611e5f565b60405180910390fd5b836005600082815260200190815260200160002060009054906101000a900473ffffffffffffffffffffffffffffffffffffffff1673ffffffffffffffffffffffffffffffffffffffff163373ffffffffffffffffffffffffffffffffffffffff161461102d576040517f08c379a000000000000000000000000000000000000000000000000000000000815260040161102490611ecb565b60405180910390fd5b836004868154811061104257611041611de4565b5b9060005260206000209060030201600001908051906020019061106692919061177e565b505050505050565b60085481565b61107c610ead565b6110bb576040517f08c379a00000000000000000000000000000000000000000000000000000000081526004016110b29061218d565b60405180910390fd5b8060088190555050565b60025481565b6110d3610ead565b611112576040517f08c379a00000000000000000000000000000000000000000000000000000000081526004016111099061218d565b60405180910390fd5b600073ffffffffffffffffffffffffffffffffffffffff168173ffffffffffffffffffffffffffffffffffffffff161415611182576040517f08c379a000000000000000000000000000000000000000000000000000000000815260040161117990612342565b60405180910390fd5b8073ffffffffffffffffffffffffffffffffffffffff1660008054906101000a900473ffffffffffffffffffffffffffffffffffffffff1673ffffffffffffffffffffffffffffffffffffffff167f8be0079c531659141344cd1fd0a4f28419497f9722a3daafe3b4186f6b6457e060405160405180910390a3806000806101000a81548173ffffffffffffffffffffffffffffffffffffffff021916908373ffffffffffffffffffffffffffffffffffffffff16021790555050565b826005600082815260200190815260200160002060009054906101000a900473ffffffffffffffffffffffffffffffffffffffff1673ffffffffffffffffffffffffffffffffffffffff163373ffffffffffffffffffffffffffffffffffffffff16146112e1576040517f08c379a00000000000000000000000000000000000000000000000000000000081526004016112d890611ecb565b60405180910390fd5b6000600485815481106112f7576112f6611de4565b5b90600052602060002090600302019050611310816116f8565b61134f576040517f08c379a0000000000000000000000000000000000000000000000000000000008152600401611346906123ae565b60405180910390fd5b6002548461135d9190612291565b93506000600285836001015461137391906123ce565b61137d9190612424565b905060405160200161138e906124ac565b60405160208183030381529060405280519060200120846040516020016113b591906124f2565b6040516020818303038152906040528051906020012014156113f85760636064826113e09190612291565b826113eb91906122c2565b6113f591906123ce565b90505b6114376040518060400160405280600681526020017f4e6f4e616d6500000000000000000000000000000000000000000000000000008152508261148d565b6114408261171f565b505050505050565b6000808260405160200161145c91906124f2565b6040516020818303038152906040528051906020012060001c9050600254816114859190612291565b915050919050565b6000600480549050905060046040518060c00160405280858152602001848152602001600163ffffffff168152602001600354426114cb91906123ce565b63ffffffff168152602001600061ffff168152602001600061ffff168152509080600181540180825580915050600190039060005260206000209060030201600090919091909150600082015181600001908051906020019061152f92919061177e565b506020820151816001015560408201518160020160006101000a81548163ffffffff021916908363ffffffff16021790555060608201518160020160046101000a81548163ffffffff021916908363ffffffff16021790555060808201518160020160086101000a81548161ffff021916908361ffff16021790555060a082015181600201600a6101000a81548161ffff021916908361ffff1602179055505050336005600083815260200190815260200160002060006101000a81548173ffffffffffffffffffffffffffffffffffffffff021916908373ffffffffffffffffffffffffffffffffffffffff1602179055506116756001600660003373ffffffffffffffffffffffffffffffffffffffff1673ffffffffffffffffffffffffffffffffffffffff1681526020019081526020016000205461175290919063ffffffff16565b600660003373ffffffffffffffffffffffffffffffffffffffff1673ffffffffffffffffffffffffffffffffffffffff168152602001908152602001600020819055507f88f026aacbbecc90c18411df4b1185fd8d9be2470f1962f192bf84a27d0704b78184846040516116eb93929190612509565b60405180910390a1505050565b6000428260020160049054906101000a900463ffffffff1663ffffffff1611159050919050565b6003544261172d91906123ce565b8160020160046101000a81548163ffffffff021916908363ffffffff16021790555050565b600080828461176191906123ce565b90508381101561177457611773612547565b5b8091505092915050565b82805461178a9061210f565b90600052602060002090601f0160209004810192826117ac57600085556117f3565b82601f106117c557805160ff19168380011785556117f3565b828001600101855582156117f3579182015b828111156117f25782518255916020019190600101906117d7565b5b5090506118009190611804565b5090565b5b8082111561181d576000816000905550600101611805565b5090565b6000604051905090565b600080fd5b600080fd5b600073ffffffffffffffffffffffffffffffffffffffff82169050919050565b600061186082611835565b9050919050565b61187081611855565b811461187b57600080fd5b50565b60008135905061188d81611867565b92915050565b6000602082840312156118a9576118a861182b565b5b60006118b78482850161187e565b91505092915050565b6000819050919050565b6118d3816118c0565b82525050565b60006020820190506118ee60008301846118ca565b92915050565b6118fd816118c0565b811461190857600080fd5b50565b60008135905061191a816118f4565b92915050565b6000602082840312156119365761193561182b565b5b60006119448482850161190b565b91505092915050565b600080604083850312156119645761196361182b565b5b60006119728582860161190b565b92505060206119838582860161190b565b9150509250929050565b600081519050919050565b600082825260208201905092915050565b60005b838110156119c75780820151818401526020810190506119ac565b838111156119d6576000848401525b50505050565b6000601f19601f8301169050919050565b60006119f88261198d565b611a028185611998565b9350611a128185602086016119a9565b611a1b816119dc565b840191505092915050565b600063ffffffff82169050919050565b611a3f81611a26565b82525050565b600061ffff82169050919050565b611a5c81611a45565b82525050565b600060c0820190508181036000830152611a7c81896119ed565b9050611a8b60208301886118ca565b611a986040830187611a36565b611aa56060830186611a36565b611ab26080830185611a53565b611abf60a0830184611a53565b979650505050505050565b600081519050919050565b600082825260208201905092915050565b6000819050602082019050919050565b611aff816118c0565b82525050565b6000611b118383611af6565b60208301905092915050565b6000602082019050919050565b6000611b3582611aca565b611b3f8185611ad5565b9350611b4a83611ae6565b8060005b83811015611b7b578151611b628882611b05565b9750611b6d83611b1d565b925050600181019050611b4e565b5085935050505092915050565b60006020820190508181036000830152611ba28184611b2a565b905092915050565b611bb381611855565b82525050565b6000602082019050611bce6000830184611baa565b92915050565b600080fd5b600080fd5b7f4e487b7100000000000000000000000000000000000000000000000000000000600052604160045260246000fd5b611c16826119dc565b810181811067ffffffffffffffff82111715611c3557611c34611bde565b5b80604052505050565b6000611c48611821565b9050611c548282611c0d565b919050565b600067ffffffffffffffff821115611c7457611c73611bde565b5b611c7d826119dc565b9050602081019050919050565b82818337600083830152505050565b6000611cac611ca784611c59565b611c3e565b905082815260208101848484011115611cc857611cc7611bd9565b5b611cd3848285611c8a565b509392505050565b600082601f830112611cf057611cef611bd4565b5b8135611d00848260208601611c99565b91505092915050565b600060208284031215611d1f57611d1e61182b565b5b600082013567ffffffffffffffff811115611d3d57611d3c611830565b5b611d4984828501611cdb565b91505092915050565b60008115159050919050565b611d6781611d52565b82525050565b6000602082019050611d826000830184611d5e565b92915050565b60008060408385031215611d9f57611d9e61182b565b5b6000611dad8582860161190b565b925050602083013567ffffffffffffffff811115611dce57611dcd611830565b5b611dda85828601611cdb565b9150509250929050565b7f4e487b7100000000000000000000000000000000000000000000000000000000600052603260045260246000fd5b7f5a6f6d626965206c6576656c206973206e6f742073756666696369656e740000600082015250565b6000611e49601e83611998565b9150611e5482611e13565b602082019050919050565b60006020820190508181036000830152611e7881611e3c565b9050919050565b7f4e6f7420746865206f776e6572206f6620746865207a6f6d6269650000000000600082015250565b6000611eb5601b83611998565b9150611ec082611e7f565b602082019050919050565b60006020820190508181036000830152611ee481611ea8565b9050919050565b7f496e636f7272656374206665652070726f766964656400000000000000000000600082015250565b6000611f21601683611998565b9150611f2c82611eeb565b602082019050919050565b60006020820190508181036000830152611f5081611f14565b9050919050565b7f4e487b7100000000000000000000000000000000000000000000000000000000600052601160045260246000fd5b6000611f9182611a26565b9150611f9c83611a26565b92508263ffffffff03821115611fb557611fb4611f57565b5b828201905092915050565b611fc981611d52565b8114611fd457600080fd5b50565b600081519050611fe681611fc0565b92915050565b600081519050611ffb816118f4565b92915050565b6000806000806000806000806000806101408b8d0312156120255761202461182b565b5b60006120338d828e01611fd7565b9a505060206120448d828e01611fd7565b99505060406120558d828e01611fec565b98505060606120668d828e01611fec565b97505060806120778d828e01611fec565b96505060a06120888d828e01611fec565b95505060c06120998d828e01611fec565b94505060e06120aa8d828e01611fec565b9350506101006120bc8d828e01611fec565b9250506101206120ce8d828e01611fec565b9150509295989b9194979a5092959850565b7f4e487b7100000000000000000000000000000000000000000000000000000000600052602260045260246000fd5b6000600282049050600182168061212757607f821691505b6020821081141561213b5761213a6120e0565b5b50919050565b7f4e6f7420746865206f776e657200000000000000000000000000000000000000600082015250565b6000612177600d83611998565b915061218282612141565b602082019050919050565b600060208201905081810360008301526121a68161216a565b9050919050565b60006121b8826118c0565b91507fffffffffffffffffffffffffffffffffffffffffffffffffffffffffffffffff8214156121eb576121ea611f57565b5b600182019050919050565b7f596f752063616e206f6e6c7920637265617465206f6e65207a6f6d6269650000600082015250565b600061222c601e83611998565b9150612237826121f6565b602082019050919050565b6000602082019050818103600083015261225b8161221f565b9050919050565b7f4e487b7100000000000000000000000000000000000000000000000000000000600052601260045260246000fd5b600061229c826118c0565b91506122a7836118c0565b9250826122b7576122b6612262565b5b828206905092915050565b60006122cd826118c0565b91506122d8836118c0565b9250828210156122eb576122ea611f57565b5b828203905092915050565b7f496e76616c6964206e6577206f776e6572000000000000000000000000000000600082015250565b600061232c601183611998565b9150612337826122f6565b602082019050919050565b6000602082019050818103600083015261235b8161231f565b9050919050565b7f5a6f6d626965206973206e6f7420726561647900000000000000000000000000600082015250565b6000612398601383611998565b91506123a382612362565b602082019050919050565b600060208201905081810360008301526123c78161238b565b9050919050565b60006123d9826118c0565b91506123e4836118c0565b9250827fffffffffffffffffffffffffffffffffffffffffffffffffffffffffffffffff0382111561241957612418611f57565b5b828201905092915050565b600061242f826118c0565b915061243a836118c0565b92508261244a57612449612262565b5b828204905092915050565b600081905092915050565b7f6b69747479000000000000000000000000000000000000000000000000000000600082015250565b6000612496600583612455565b91506124a182612460565b600582019050919050565b60006124b782612489565b9150819050919050565b60006124cc8261198d565b6124d68185612455565b93506124e68185602086016119a9565b80840191505092915050565b60006124fe82846124c1565b915081905092915050565b600060608201905061251e60008301866118ca565b818103602083015261253081856119ed565b905061253f60408301846118ca565b949350505050565b7f4e487b7100000000000000000000000000000000000000000000000000000000600052600160045260246000fdfea26469706673582212202e79d44a431a0dbadc44987b30b122a36499e01da19269ef0cfab675cd1c535c64736f6c634300080a0033",
  "immutableReferences": {},
  "source": "// SPDX-License-Identifier: MIT\npragma solidity ^0.8.10;\n\nimport \"./zombiefeeding.sol\";\n\ncontract ZombieHelper is ZombieFeeding {\n    uint public levelUpFee = 0.001 ether;\n\n    modifier aboveLevel(uint _level, uint _zombieId) {\n        require(zombies[_zombieId].level >= _level, \"Zombie level is not sufficient\");\n        _;\n    }\n\n    function withdraw() external onlyOwner {\n        address _owner = owner();\n        payable(_owner).transfer(address(this).balance);\n    }\n\n    function setLevelUpFee(uint _fee) external onlyOwner {\n        levelUpFee = _fee;\n    }\n\n    function levelUp(uint _zombieId) external payable aboveLevel(2, _zombieId) onlyOwnerOf(_zombieId) {\n        require(msg.value == levelUpFee, \"Incorrect fee provided\");\n        zombies[_zombieId].level = zombies[_zombieId].level + 1;\n    }\n\n    function changeName(uint _zombieId, string memory _newName)\n        external\n        aboveLevel(2, _zombieId)\n        onlyOwnerOf(_zombieId)\n    {\n        zombies[_zombieId].name = _newName;\n    }\n\n    // Other functions and modifiers...\n\n    // Add any additional functions or modifiers if needed.\n\n\n\n  function changeDna(uint _zombieId, uint _newDna) external aboveLevel(20, _zombieId) onlyOwnerOf(_zombieId) {\n    zombies[_zombieId].dna = _newDna;\n  }\n\n  function getZombiesByOwner(address _owner) external view returns(uint[] memory) {\n    uint[] memory result = new uint[](ownerZombieCount[_owner]);\n    uint counter = 0;\n    for (uint i = 0; i < zombies.length; i++) {\n      if (zombieToOwner[i] == _owner) {\n        result[counter] = i;\n        counter++;\n      }\n    }\n    return result;\n  }\n}\n",
  "sourcePath": "C:\\Users\\SK2712\\OneDrive - Cal State Fullerton\\Desktop\\MidtermProj\\Cryptozombie demo package\\contracts\\zombiehelper.sol",
  "compiler": {
    "name": "solc",
    "version": "0.8.10+commit.fc410830.Emscripten.clang"
  },
  "schemaVersion": "3.4.16",
  "updatedAt": "2024-03-12T23:28:45.914Z",
  "networkType": "ethereum",
  "devdoc": {
    "kind": "dev",
    "methods": {},
    "version": 1
  },
  "userdoc": {
    "kind": "user",
    "methods": {},
    "version": 1
  }
}