{
  "contractName": "ZombieFeeding",
  "abi": [
    {
      "anonymous": false,
      "inputs": [
        {
          "indexed": false,
          "internalType": "uint256",
          "name": "zombieId",
          "type": "uint256"
        },
        {
          "indexed": false,
          "internalType": "string",
          "name": "name",
          "type": "string"
        },
        {
          "indexed": false,
          "internalType": "uint256",
          "name": "dna",
          "type": "uint256"
        }
      ],
      "name": "NewZombie",
      "type": "event"
    },
    {
      "anonymous": false,
      "inputs": [
        {
          "indexed": true,
          "internalType": "address",
          "name": "previousOwner",
          "type": "address"
        },
        {
          "indexed": true,
          "internalType": "address",
          "name": "newOwner",
          "type": "address"
        }
      ],
      "name": "OwnershipTransferred",
      "type": "event"
    },
    {
      "inputs": [],
      "name": "cooldownTime",
      "outputs": [
        {
          "internalType": "uint256",
          "name": "",
          "type": "uint256"
        }
      ],
      "stateMutability": "view",
      "type": "function",
      "constant": true
    },
    {
      "inputs": [
        {
          "internalType": "string",
          "name": "_name",
          "type": "string"
        }
      ],
      "name": "createRandomZombie",
      "outputs": [],
      "stateMutability": "nonpayable",
      "type": "function"
    },
    {
      "inputs": [],
      "name": "dnaDigits",
      "outputs": [
        {
          "internalType": "uint256",
          "name": "",
          "type": "uint256"
        }
      ],
      "stateMutability": "view",
      "type": "function",
      "constant": true
    },
    {
      "inputs": [],
      "name": "dnaModulus",
      "outputs": [
        {
          "internalType": "uint256",
          "name": "",
          "type": "uint256"
        }
      ],
      "stateMutability": "view",
      "type": "function",
      "constant": true
    },
    {
      "inputs": [],
      "name": "isOwner",
      "outputs": [
        {
          "internalType": "bool",
          "name": "",
          "type": "bool"
        }
      ],
      "stateMutability": "view",
      "type": "function",
      "constant": true
    },
    {
      "inputs": [],
      "name": "owner",
      "outputs": [
        {
          "internalType": "address",
          "name": "",
          "type": "address"
        }
      ],
      "stateMutability": "view",
      "type": "function",
      "constant": true
    },
    {
      "inputs": [
        {
          "internalType": "address",
          "name": "",
          "type": "address"
        }
      ],
      "name": "ownerZombieCount",
      "outputs": [
        {
          "internalType": "uint256",
          "name": "",
          "type": "uint256"
        }
      ],
      "stateMutability": "view",
      "type": "function",
      "constant": true
    },
    {
      "inputs": [],
      "name": "renounceOwnership",
      "outputs": [],
      "stateMutability": "nonpayable",
      "type": "function"
    },
    {
      "inputs": [
        {
          "internalType": "address",
          "name": "newOwner",
          "type": "address"
        }
      ],
      "name": "transferOwnership",
      "outputs": [],
      "stateMutability": "nonpayable",
      "type": "function"
    },
    {
      "inputs": [
        {
          "internalType": "uint256",
          "name": "",
          "type": "uint256"
        }
      ],
      "name": "zombieToOwner",
      "outputs": [
        {
          "internalType": "address",
          "name": "",
          "type": "address"
        }
      ],
      "stateMutability": "view",
      "type": "function",
      "constant": true
    },
    {
      "inputs": [
        {
          "internalType": "uint256",
          "name": "",
          "type": "uint256"
        }
      ],
      "name": "zombies",
      "outputs": [
        {
          "internalType": "string",
          "name": "name",
          "type": "string"
        },
        {
          "internalType": "uint256",
          "name": "dna",
          "type": "uint256"
        },
        {
          "internalType": "uint32",
          "name": "level",
          "type": "uint32"
        },
        {
          "internalType": "uint32",
          "name": "readyTime",
          "type": "uint32"
        },
        {
          "internalType": "uint16",
          "name": "winCount",
          "type": "uint16"
        },
        {
          "internalType": "uint16",
          "name": "lossCount",
          "type": "uint16"
        }
      ],
      "stateMutability": "view",
      "type": "function",
      "constant": true
    },
    {
      "inputs": [
        {
          "internalType": "address",
          "name": "_address",
          "type": "address"
        }
      ],
      "name": "setKittyContractAddress",
      "outputs": [],
      "stateMutability": "nonpayable",
      "type": "function"
    },
    {
      "inputs": [
        {
          "internalType": "uint256",
          "name": "_zombieId",
          "type": "uint256"
        },
        {
          "internalType": "uint256",
          "name": "_kittyId",
          "type": "uint256"
        }
      ],
      "name": "feedOnKitty",
      "outputs": [],
      "stateMutability": "nonpayable",
      "type": "function"
    }
  ],
  "bytecode": "0x60806040526010600155600154600a6200001a919062000280565b600255620151806003553480156200003157600080fd5b50336000806101000a81548173ffffffffffffffffffffffffffffffffffffffff021916908373ffffffffffffffffffffffffffffffffffffffff16021790555060008054906101000a900473ffffffffffffffffffffffffffffffffffffffff1673ffffffffffffffffffffffffffffffffffffffff16600073ffffffffffffffffffffffffffffffffffffffff167f8be0079c531659141344cd1fd0a4f28419497f9722a3daafe3b4186f6b6457e060405160405180910390a3620002d1565b7f4e487b7100000000000000000000000000000000000000000000000000000000600052601160045260246000fd5b60008160011c9050919050565b6000808291508390505b60018511156200018157808604811115620001595762000158620000f3565b5b6001851615620001695780820291505b8081029050620001798562000122565b945062000139565b94509492505050565b6000826200019c57600190506200026f565b81620001ac57600090506200026f565b8160018114620001c55760028114620001d05762000206565b60019150506200026f565b60ff841115620001e557620001e4620000f3565b5b8360020a915084821115620001ff57620001fe620000f3565b5b506200026f565b5060208310610133831016604e8410600b8410161715620002405782820a9050838111156200023a5762000239620000f3565b5b6200026f565b6200024f84848460016200012f565b92509050818404811115620002695762000268620000f3565b5b81810290505b9392505050565b6000819050919050565b60006200028d8262000276565b91506200029a8362000276565b9250620002c97fffffffffffffffffffffffffffffffffffffffffffffffffffffffffffffffff84846200018a565b905092915050565b611a1580620002e16000396000f3fe608060405234801561001057600080fd5b50600436106100cf5760003560e01c8063715018a61161008c5780638f32d59b116100665780638f32d59b14610203578063b319c6b714610221578063daba07111461023f578063f2fde38b1461025d576100cf565b8063715018a6146101bf5780637bff0a01146101c95780638da5cb5b146101e5576100cf565b806301afd7e1146100d457806317a7f4cc146101045780632052465e14610120578063528b7b8f146101555780635f4623f114610185578063692c6627146101a1575b600080fd5b6100ee60048036038101906100e99190610f93565b610279565b6040516100fb9190610fd9565b60405180910390f35b61011e60048036038101906101199190611020565b610291565b005b61013a60048036038101906101359190611060565b6103af565b60405161014c96959493929190611162565b60405180910390f35b61016f600480360381019061016a9190611060565b6104bf565b60405161017c91906111d9565b60405180910390f35b61019f600480360381019061019a9190610f93565b6104f2565b005b6101a961057d565b6040516101b69190610fd9565b60405180910390f35b6101c7610583565b005b6101e360048036038101906101de9190611329565b610688565b005b6101ed61073f565b6040516101fa91906111d9565b60405180910390f35b61020b610768565b604051610218919061138d565b60405180910390f35b6102296107bf565b6040516102369190610fd9565b60405180910390f35b6102476107c5565b6040516102549190610fd9565b60405180910390f35b61027760048036038101906102729190610f93565b6107cb565b005b60066020528060005260406000206000915090505481565b6000600760009054906101000a900473ffffffffffffffffffffffffffffffffffffffff1673ffffffffffffffffffffffffffffffffffffffff1663e98b7f4d836040518263ffffffff1660e01b81526004016102ee9190610fd9565b61014060405180830381865afa15801561030c573d6000803e3d6000fd5b505050506040513d601f19601f8201168201806040525081019061033091906113e9565b909192939495969798509091929394959697509091929394959650909192939495509091929394509091929350909192509091509050809150506103aa83826040518060400160405280600581526020017f6b6974747900000000000000000000000000000000000000000000000000000081525061093f565b505050565b600481815481106103bf57600080fd5b90600052602060002090600302016000915090508060000180546103e2906114f7565b80601f016020809104026020016040519081016040528092919081815260200182805461040e906114f7565b801561045b5780601f106104305761010080835404028352916020019161045b565b820191906000526020600020905b81548152906001019060200180831161043e57829003601f168201915b5050505050908060010154908060020160009054906101000a900463ffffffff16908060020160049054906101000a900463ffffffff16908060020160089054906101000a900461ffff169080600201600a9054906101000a900461ffff16905086565b60056020528060005260406000206000915054906101000a900473ffffffffffffffffffffffffffffffffffffffff1681565b6104fa610768565b610539576040517f08c379a000000000000000000000000000000000000000000000000000000000815260040161053090611575565b60405180910390fd5b80600760006101000a81548173ffffffffffffffffffffffffffffffffffffffff021916908373ffffffffffffffffffffffffffffffffffffffff16021790555050565b60015481565b61058b610768565b6105ca576040517f08c379a00000000000000000000000000000000000000000000000000000000081526004016105c190611575565b60405180910390fd5b600073ffffffffffffffffffffffffffffffffffffffff1660008054906101000a900473ffffffffffffffffffffffffffffffffffffffff1673ffffffffffffffffffffffffffffffffffffffff167f8be0079c531659141344cd1fd0a4f28419497f9722a3daafe3b4186f6b6457e060405160405180910390a360008060006101000a81548173ffffffffffffffffffffffffffffffffffffffff021916908373ffffffffffffffffffffffffffffffffffffffff160217905550565b6000600660003373ffffffffffffffffffffffffffffffffffffffff1673ffffffffffffffffffffffffffffffffffffffff168152602001908152602001600020541461070a576040517f08c379a0000000000000000000000000000000000000000000000000000000008152600401610701906115e1565b60405180910390fd5b600061071582610b48565b90506064816107249190611630565b8161072f9190611690565b905061073b8282610b8d565b5050565b60008060009054906101000a900473ffffffffffffffffffffffffffffffffffffffff16905090565b60008060009054906101000a900473ffffffffffffffffffffffffffffffffffffffff1673ffffffffffffffffffffffffffffffffffffffff163373ffffffffffffffffffffffffffffffffffffffff1614905090565b60035481565b60025481565b6107d3610768565b610812576040517f08c379a000000000000000000000000000000000000000000000000000000000815260040161080990611575565b60405180910390fd5b600073ffffffffffffffffffffffffffffffffffffffff168173ffffffffffffffffffffffffffffffffffffffff161415610882576040517f08c379a000000000000000000000000000000000000000000000000000000000815260040161087990611710565b60405180910390fd5b8073ffffffffffffffffffffffffffffffffffffffff1660008054906101000a900473ffffffffffffffffffffffffffffffffffffffff1673ffffffffffffffffffffffffffffffffffffffff167f8be0079c531659141344cd1fd0a4f28419497f9722a3daafe3b4186f6b6457e060405160405180910390a3806000806101000a81548173ffffffffffffffffffffffffffffffffffffffff021916908373ffffffffffffffffffffffffffffffffffffffff16021790555050565b826005600082815260200190815260200160002060009054906101000a900473ffffffffffffffffffffffffffffffffffffffff1673ffffffffffffffffffffffffffffffffffffffff163373ffffffffffffffffffffffffffffffffffffffff16146109e1576040517f08c379a00000000000000000000000000000000000000000000000000000000081526004016109d89061177c565b60405180910390fd5b6000600485815481106109f7576109f661179c565b5b90600052602060002090600302019050610a1081610df8565b610a4f576040517f08c379a0000000000000000000000000000000000000000000000000000000008152600401610a4690611817565b60405180910390fd5b60025484610a5d9190611630565b935060006002858360010154610a739190611837565b610a7d919061188d565b9050604051602001610a8e90611915565b6040516020818303038152906040528051906020012084604051602001610ab5919061195b565b604051602081830303815290604052805190602001201415610af8576063606482610ae09190611630565b82610aeb9190611690565b610af59190611837565b90505b610b376040518060400160405280600681526020017f4e6f4e616d65000000000000000000000000000000000000000000000000000081525082610b8d565b610b4082610e1f565b505050505050565b60008082604051602001610b5c919061195b565b6040516020818303038152906040528051906020012060001c905060025481610b859190611630565b915050919050565b6000600480549050905060046040518060c00160405280858152602001848152602001600163ffffffff16815260200160035442610bcb9190611837565b63ffffffff168152602001600061ffff168152602001600061ffff1681525090806001815401808255809150506001900390600052602060002090600302016000909190919091506000820151816000019080519060200190610c2f929190610e7e565b506020820151816001015560408201518160020160006101000a81548163ffffffff021916908363ffffffff16021790555060608201518160020160046101000a81548163ffffffff021916908363ffffffff16021790555060808201518160020160086101000a81548161ffff021916908361ffff16021790555060a082015181600201600a6101000a81548161ffff021916908361ffff1602179055505050336005600083815260200190815260200160002060006101000a81548173ffffffffffffffffffffffffffffffffffffffff021916908373ffffffffffffffffffffffffffffffffffffffff160217905550610d756001600660003373ffffffffffffffffffffffffffffffffffffffff1673ffffffffffffffffffffffffffffffffffffffff16815260200190815260200160002054610e5290919063ffffffff16565b600660003373ffffffffffffffffffffffffffffffffffffffff1673ffffffffffffffffffffffffffffffffffffffff168152602001908152602001600020819055507f88f026aacbbecc90c18411df4b1185fd8d9be2470f1962f192bf84a27d0704b7818484604051610deb93929190611972565b60405180910390a1505050565b6000428260020160049054906101000a900463ffffffff1663ffffffff1611159050919050565b60035442610e2d9190611837565b8160020160046101000a81548163ffffffff021916908363ffffffff16021790555050565b6000808284610e619190611837565b905083811015610e7457610e736119b0565b5b8091505092915050565b828054610e8a906114f7565b90600052602060002090601f016020900481019282610eac5760008555610ef3565b82601f10610ec557805160ff1916838001178555610ef3565b82800160010185558215610ef3579182015b82811115610ef2578251825591602001919060010190610ed7565b5b509050610f009190610f04565b5090565b5b80821115610f1d576000816000905550600101610f05565b5090565b6000604051905090565b600080fd5b600080fd5b600073ffffffffffffffffffffffffffffffffffffffff82169050919050565b6000610f6082610f35565b9050919050565b610f7081610f55565b8114610f7b57600080fd5b50565b600081359050610f8d81610f67565b92915050565b600060208284031215610fa957610fa8610f2b565b5b6000610fb784828501610f7e565b91505092915050565b6000819050919050565b610fd381610fc0565b82525050565b6000602082019050610fee6000830184610fca565b92915050565b610ffd81610fc0565b811461100857600080fd5b50565b60008135905061101a81610ff4565b92915050565b6000806040838503121561103757611036610f2b565b5b60006110458582860161100b565b92505060206110568582860161100b565b9150509250929050565b60006020828403121561107657611075610f2b565b5b60006110848482850161100b565b91505092915050565b600081519050919050565b600082825260208201905092915050565b60005b838110156110c75780820151818401526020810190506110ac565b838111156110d6576000848401525b50505050565b6000601f19601f8301169050919050565b60006110f88261108d565b6111028185611098565b93506111128185602086016110a9565b61111b816110dc565b840191505092915050565b600063ffffffff82169050919050565b61113f81611126565b82525050565b600061ffff82169050919050565b61115c81611145565b82525050565b600060c082019050818103600083015261117c81896110ed565b905061118b6020830188610fca565b6111986040830187611136565b6111a56060830186611136565b6111b26080830185611153565b6111bf60a0830184611153565b979650505050505050565b6111d381610f55565b82525050565b60006020820190506111ee60008301846111ca565b92915050565b600080fd5b600080fd5b7f4e487b7100000000000000000000000000000000000000000000000000000000600052604160045260246000fd5b611236826110dc565b810181811067ffffffffffffffff82111715611255576112546111fe565b5b80604052505050565b6000611268610f21565b9050611274828261122d565b919050565b600067ffffffffffffffff821115611294576112936111fe565b5b61129d826110dc565b9050602081019050919050565b82818337600083830152505050565b60006112cc6112c784611279565b61125e565b9050828152602081018484840111156112e8576112e76111f9565b5b6112f38482856112aa565b509392505050565b600082601f8301126113105761130f6111f4565b5b81356113208482602086016112b9565b91505092915050565b60006020828403121561133f5761133e610f2b565b5b600082013567ffffffffffffffff81111561135d5761135c610f30565b5b611369848285016112fb565b91505092915050565b60008115159050919050565b61138781611372565b82525050565b60006020820190506113a2600083018461137e565b92915050565b6113b181611372565b81146113bc57600080fd5b50565b6000815190506113ce816113a8565b92915050565b6000815190506113e381610ff4565b92915050565b6000806000806000806000806000806101408b8d03121561140d5761140c610f2b565b5b600061141b8d828e016113bf565b9a5050602061142c8d828e016113bf565b995050604061143d8d828e016113d4565b985050606061144e8d828e016113d4565b975050608061145f8d828e016113d4565b96505060a06114708d828e016113d4565b95505060c06114818d828e016113d4565b94505060e06114928d828e016113d4565b9350506101006114a48d828e016113d4565b9250506101206114b68d828e016113d4565b9150509295989b9194979a5092959850565b7f4e487b7100000000000000000000000000000000000000000000000000000000600052602260045260246000fd5b6000600282049050600182168061150f57607f821691505b60208210811415611523576115226114c8565b5b50919050565b7f4e6f7420746865206f776e657200000000000000000000000000000000000000600082015250565b600061155f600d83611098565b915061156a82611529565b602082019050919050565b6000602082019050818103600083015261158e81611552565b9050919050565b7f596f752063616e206f6e6c7920637265617465206f6e65207a6f6d6269650000600082015250565b60006115cb601e83611098565b91506115d682611595565b602082019050919050565b600060208201905081810360008301526115fa816115be565b9050919050565b7f4e487b7100000000000000000000000000000000000000000000000000000000600052601260045260246000fd5b600061163b82610fc0565b915061164683610fc0565b92508261165657611655611601565b5b828206905092915050565b7f4e487b7100000000000000000000000000000000000000000000000000000000600052601160045260246000fd5b600061169b82610fc0565b91506116a683610fc0565b9250828210156116b9576116b8611661565b5b828203905092915050565b7f496e76616c6964206e6577206f776e6572000000000000000000000000000000600082015250565b60006116fa601183611098565b9150611705826116c4565b602082019050919050565b60006020820190508181036000830152611729816116ed565b9050919050565b7f4e6f7420746865206f776e6572206f6620746865207a6f6d6269650000000000600082015250565b6000611766601b83611098565b915061177182611730565b602082019050919050565b6000602082019050818103600083015261179581611759565b9050919050565b7f4e487b7100000000000000000000000000000000000000000000000000000000600052603260045260246000fd5b7f5a6f6d626965206973206e6f7420726561647900000000000000000000000000600082015250565b6000611801601383611098565b915061180c826117cb565b602082019050919050565b60006020820190508181036000830152611830816117f4565b9050919050565b600061184282610fc0565b915061184d83610fc0565b9250827fffffffffffffffffffffffffffffffffffffffffffffffffffffffffffffffff0382111561188257611881611661565b5b828201905092915050565b600061189882610fc0565b91506118a383610fc0565b9250826118b3576118b2611601565b5b828204905092915050565b600081905092915050565b7f6b69747479000000000000000000000000000000000000000000000000000000600082015250565b60006118ff6005836118be565b915061190a826118c9565b600582019050919050565b6000611920826118f2565b9150819050919050565b60006119358261108d565b61193f81856118be565b935061194f8185602086016110a9565b80840191505092915050565b6000611967828461192a565b915081905092915050565b60006060820190506119876000830186610fca565b818103602083015261199981856110ed565b90506119a86040830184610fca565b949350505050565b7f4e487b7100000000000000000000000000000000000000000000000000000000600052600160045260246000fdfea26469706673582212203bbdc378d340c59eb2367659720f3d1fac7fa706ecaf23d64fbd9a62195d55b164736f6c634300080a0033",
  "immutableReferences": {},
  "source": "// SPDX-License-Identifier: MIT\npragma solidity ^0.8.10;\n\nimport \"./zombiefactory.sol\";\n\n// Placeholder for the missing part of the KittyInterface\ninterface KittyInterface {\n    function getKitty(uint256 _id) external view returns (\n        bool isGestating,\n        bool isReady,\n        uint256 cooldownIndex,\n        uint256 nextActionAt,\n        uint256 siringWithId,\n        uint256 birthTime,\n        uint256 matronId,\n        uint256 sireId,\n        uint256 generation,\n        uint256 genes\n    );\n}\n\ncontract ZombieFeeding is ZombieFactory {\n\n    KittyInterface kittyContract;\n\n    modifier onlyOwnerOf(uint _zombieId) {\n        require(msg.sender == zombieToOwner[_zombieId], \"Not the owner of the zombie\");\n        _;\n    }\n\n    function setKittyContractAddress(address _address) external onlyOwner {\n        kittyContract = KittyInterface(_address);\n    }\n\n    function _triggerCooldown(Zombie storage _zombie) internal {\n        _zombie.readyTime = uint32(block.timestamp + cooldownTime);\n    }\n\n    function _isReady(Zombie storage _zombie) internal view returns (bool) {\n        return (_zombie.readyTime <= block.timestamp);\n    }\n\n    function feedAndMultiply(uint _zombieId, uint _targetDna, string memory _species) internal onlyOwnerOf(_zombieId) {\n        Zombie storage myZombie = zombies[_zombieId];\n        require(_isReady(myZombie), \"Zombie is not ready\");\n        _targetDna = _targetDna % dnaModulus;\n        uint newDna = (myZombie.dna + _targetDna) / 2;\n        if (keccak256(abi.encodePacked(_species)) == keccak256(abi.encodePacked(\"kitty\"))) {\n            newDna = newDna - newDna % 100 + 99;\n        }\n        _createZombie(\"NoName\", newDna);\n        _triggerCooldown(myZombie);\n    }\n\n    function feedOnKitty(uint _zombieId, uint _kittyId) public {\n        uint kittyDna;\n        (,,,,,,,,,kittyDna) = kittyContract.getKitty(_kittyId);\n        feedAndMultiply(_zombieId, kittyDna, \"kitty\");\n    }\n}\n",
  "sourcePath": "C:\\Users\\SK2712\\OneDrive - Cal State Fullerton\\Desktop\\MidtermProj\\Cryptozombie demo package\\contracts\\zombiefeeding.sol",
  "compiler": {
    "name": "solc",
    "version": "0.8.10+commit.fc410830.Emscripten.clang"
  },
  "schemaVersion": "3.4.16",
  "updatedAt": "2024-03-12T23:28:45.896Z",
  "networkType": "ethereum",
  "devdoc": {
    "kind": "dev",
    "methods": {},
    "version": 1
  },
  "userdoc": {
    "kind": "user",
    "methods": {},
    "version": 1
  }
}