{
  "contractName": "ZombieOwnership",
  "abi": [
    {
      "anonymous": false,
      "inputs": [
        {
          "indexed": true,
          "internalType": "address",
          "name": "_owner",
          "type": "address"
        },
        {
          "indexed": true,
          "internalType": "address",
          "name": "_approved",
          "type": "address"
        },
        {
          "indexed": true,
          "internalType": "uint256",
          "name": "_tokenId",
          "type": "uint256"
        }
      ],
      "name": "Approval",
      "type": "event"
    },
    {
      "anonymous": false,
      "inputs": [
        {
          "indexed": false,
          "internalType": "uint256",
          "name": "zombieId",
          "type": "uint256"
        },
        {
          "indexed": false,
          "internalType": "string",
          "name": "name",
          "type": "string"
        },
        {
          "indexed": false,
          "internalType": "uint256",
          "name": "dna",
          "type": "uint256"
        }
      ],
      "name": "NewZombie",
      "type": "event"
    },
    {
      "anonymous": false,
      "inputs": [
        {
          "indexed": true,
          "internalType": "address",
          "name": "previousOwner",
          "type": "address"
        },
        {
          "indexed": true,
          "internalType": "address",
          "name": "newOwner",
          "type": "address"
        }
      ],
      "name": "OwnershipTransferred",
      "type": "event"
    },
    {
      "anonymous": false,
      "inputs": [
        {
          "indexed": true,
          "internalType": "address",
          "name": "_from",
          "type": "address"
        },
        {
          "indexed": true,
          "internalType": "address",
          "name": "_to",
          "type": "address"
        },
        {
          "indexed": true,
          "internalType": "uint256",
          "name": "_tokenId",
          "type": "uint256"
        }
      ],
      "name": "Transfer",
      "type": "event"
    },
    {
      "inputs": [
        {
          "internalType": "uint256",
          "name": "",
          "type": "uint256"
        }
      ],
      "name": "approvedZombieTransfer",
      "outputs": [
        {
          "internalType": "address",
          "name": "",
          "type": "address"
        }
      ],
      "stateMutability": "view",
      "type": "function",
      "constant": true
    },
    {
      "inputs": [
        {
          "internalType": "uint256",
          "name": "_zombieId",
          "type": "uint256"
        },
        {
          "internalType": "uint256",
          "name": "_newDna",
          "type": "uint256"
        }
      ],
      "name": "changeDna",
      "outputs": [],
      "stateMutability": "nonpayable",
      "type": "function"
    },
    {
      "inputs": [
        {
          "internalType": "uint256",
          "name": "_zombieId",
          "type": "uint256"
        },
        {
          "internalType": "string",
          "name": "_newName",
          "type": "string"
        }
      ],
      "name": "changeName",
      "outputs": [],
      "stateMutability": "nonpayable",
      "type": "function"
    },
    {
      "inputs": [],
      "name": "cooldownTime",
      "outputs": [
        {
          "internalType": "uint256",
          "name": "",
          "type": "uint256"
        }
      ],
      "stateMutability": "view",
      "type": "function",
      "constant": true
    },
    {
      "inputs": [
        {
          "internalType": "string",
          "name": "_name",
          "type": "string"
        }
      ],
      "name": "createRandomZombie",
      "outputs": [],
      "stateMutability": "nonpayable",
      "type": "function"
    },
    {
      "inputs": [],
      "name": "dnaDigits",
      "outputs": [
        {
          "internalType": "uint256",
          "name": "",
          "type": "uint256"
        }
      ],
      "stateMutability": "view",
      "type": "function",
      "constant": true
    },
    {
      "inputs": [],
      "name": "dnaModulus",
      "outputs": [
        {
          "internalType": "uint256",
          "name": "",
          "type": "uint256"
        }
      ],
      "stateMutability": "view",
      "type": "function",
      "constant": true
    },
    {
      "inputs": [
        {
          "internalType": "uint256",
          "name": "_zombieId",
          "type": "uint256"
        },
        {
          "internalType": "uint256",
          "name": "_kittyId",
          "type": "uint256"
        }
      ],
      "name": "feedOnKitty",
      "outputs": [],
      "stateMutability": "nonpayable",
      "type": "function"
    },
    {
      "inputs": [
        {
          "internalType": "address",
          "name": "_owner",
          "type": "address"
        }
      ],
      "name": "getZombiesByOwner",
      "outputs": [
        {
          "internalType": "uint256[]",
          "name": "",
          "type": "uint256[]"
        }
      ],
      "stateMutability": "view",
      "type": "function",
      "constant": true
    },
    {
      "inputs": [],
      "name": "isOwner",
      "outputs": [
        {
          "internalType": "bool",
          "name": "",
          "type": "bool"
        }
      ],
      "stateMutability": "view",
      "type": "function",
      "constant": true
    },
    {
      "inputs": [
        {
          "internalType": "uint256",
          "name": "_zombieId",
          "type": "uint256"
        }
      ],
      "name": "levelUp",
      "outputs": [],
      "stateMutability": "payable",
      "type": "function",
      "payable": true
    },
    {
      "inputs": [],
      "name": "levelUpFee",
      "outputs": [
        {
          "internalType": "uint256",
          "name": "",
          "type": "uint256"
        }
      ],
      "stateMutability": "view",
      "type": "function",
      "constant": true
    },
    {
      "inputs": [],
      "name": "owner",
      "outputs": [
        {
          "internalType": "address",
          "name": "",
          "type": "address"
        }
      ],
      "stateMutability": "view",
      "type": "function",
      "constant": true
    },
    {
      "inputs": [
        {
          "internalType": "address",
          "name": "",
          "type": "address"
        }
      ],
      "name": "ownerZombieCount",
      "outputs": [
        {
          "internalType": "uint256",
          "name": "",
          "type": "uint256"
        }
      ],
      "stateMutability": "view",
      "type": "function",
      "constant": true
    },
    {
      "inputs": [],
      "name": "renounceOwnership",
      "outputs": [],
      "stateMutability": "nonpayable",
      "type": "function"
    },
    {
      "inputs": [
        {
          "internalType": "address",
          "name": "_address",
          "type": "address"
        }
      ],
      "name": "setKittyContractAddress",
      "outputs": [],
      "stateMutability": "nonpayable",
      "type": "function"
    },
    {
      "inputs": [
        {
          "internalType": "uint256",
          "name": "_fee",
          "type": "uint256"
        }
      ],
      "name": "setLevelUpFee",
      "outputs": [],
      "stateMutability": "nonpayable",
      "type": "function"
    },
    {
      "inputs": [
        {
          "internalType": "address",
          "name": "newOwner",
          "type": "address"
        }
      ],
      "name": "transferOwnership",
      "outputs": [],
      "stateMutability": "nonpayable",
      "type": "function"
    },
    {
      "inputs": [],
      "name": "withdraw",
      "outputs": [],
      "stateMutability": "nonpayable",
      "type": "function"
    },
    {
      "inputs": [
        {
          "internalType": "uint256",
          "name": "",
          "type": "uint256"
        }
      ],
      "name": "zombieToOwner",
      "outputs": [
        {
          "internalType": "address",
          "name": "",
          "type": "address"
        }
      ],
      "stateMutability": "view",
      "type": "function",
      "constant": true
    },
    {
      "inputs": [
        {
          "internalType": "uint256",
          "name": "",
          "type": "uint256"
        }
      ],
      "name": "zombies",
      "outputs": [
        {
          "internalType": "string",
          "name": "name",
          "type": "string"
        },
        {
          "internalType": "uint256",
          "name": "dna",
          "type": "uint256"
        },
        {
          "internalType": "uint32",
          "name": "level",
          "type": "uint32"
        },
        {
          "internalType": "uint32",
          "name": "readyTime",
          "type": "uint32"
        },
        {
          "internalType": "uint16",
          "name": "winCount",
          "type": "uint16"
        },
        {
          "internalType": "uint16",
          "name": "lossCount",
          "type": "uint16"
        }
      ],
      "stateMutability": "view",
      "type": "function",
      "constant": true
    },
    {
      "inputs": [
        {
          "internalType": "address",
          "name": "_owner",
          "type": "address"
        }
      ],
      "name": "balanceOf",
      "outputs": [
        {
          "internalType": "uint256",
          "name": "",
          "type": "uint256"
        }
      ],
      "stateMutability": "view",
      "type": "function",
      "constant": true
    },
    {
      "inputs": [
        {
          "internalType": "uint256",
          "name": "_tokenId",
          "type": "uint256"
        }
      ],
      "name": "ownerOf",
      "outputs": [
        {
          "internalType": "address",
          "name": "",
          "type": "address"
        }
      ],
      "stateMutability": "view",
      "type": "function",
      "constant": true
    },
    {
      "inputs": [
        {
          "internalType": "address",
          "name": "_from",
          "type": "address"
        },
        {
          "internalType": "address",
          "name": "_to",
          "type": "address"
        },
        {
          "internalType": "uint256",
          "name": "_tokenId",
          "type": "uint256"
        }
      ],
      "name": "transferFrom",
      "outputs": [],
      "stateMutability": "payable",
      "type": "function",
      "payable": true
    },
    {
      "inputs": [
        {
          "internalType": "address",
          "name": "_approved",
          "type": "address"
        },
        {
          "internalType": "uint256",
          "name": "_tokenId",
          "type": "uint256"
        }
      ],
      "name": "approve",
      "outputs": [],
      "stateMutability": "payable",
      "type": "function",
      "payable": true
    }
  ],
  "bytecode": "0x60806040526010600155600154600a6200001a91906200028b565b6002556201518060035566038d7ea4c680006008553480156200003c57600080fd5b50336000806101000a81548173ffffffffffffffffffffffffffffffffffffffff021916908373ffffffffffffffffffffffffffffffffffffffff16021790555060008054906101000a900473ffffffffffffffffffffffffffffffffffffffff1673ffffffffffffffffffffffffffffffffffffffff16600073ffffffffffffffffffffffffffffffffffffffff167f8be0079c531659141344cd1fd0a4f28419497f9722a3daafe3b4186f6b6457e060405160405180910390a3620002dc565b7f4e487b7100000000000000000000000000000000000000000000000000000000600052601160045260246000fd5b60008160011c9050919050565b6000808291508390505b60018511156200018c57808604811115620001645762000163620000fe565b5b6001851615620001745780820291505b808102905062000184856200012d565b945062000144565b94509492505050565b600082620001a757600190506200027a565b81620001b757600090506200027a565b8160018114620001d05760028114620001db5762000211565b60019150506200027a565b60ff841115620001f057620001ef620000fe565b5b8360020a9150848211156200020a5762000209620000fe565b5b506200027a565b5060208310610133831016604e8410600b84101617156200024b5782820a905083811115620002455762000244620000fe565b5b6200027a565b6200025a84848460016200013a565b92509050818404811115620002745762000273620000fe565b5b81810290505b9392505050565b6000819050919050565b6000620002988262000281565b9150620002a58362000281565b9250620002d47fffffffffffffffffffffffffffffffffffffffffffffffffffffffffffffffff848462000195565b905092915050565b612e5580620002ec6000396000f3fe6080604052600436106101665760003560e01c80636352211e116100d15780638f32d59b1161008a578063c4114b1211610064578063c4114b1214610516578063ccf670f814610541578063daba07111461056a578063f2fde38b1461059557610166565b80638f32d59b14610497578063b319c6b7146104c2578063c39cbef1146104ed57610166565b80636352211e14610387578063692c6627146103c457806370a08231146103ef578063715018a61461042c5780637bff0a01146104435780638da5cb5b1461046c57610166565b806323b872dd1161012357806323b872dd146102885780633ccfd60b146102a45780634412e104146102bb578063528b7b8f146102f85780635f4623f1146103355780635faf28801461035e57610166565b806301afd7e11461016b578063095ea7b3146101a85780630ce90ec2146101c457806317a7f4cc146101e05780632052465e14610209578063214c712c1461024b575b600080fd5b34801561017757600080fd5b50610192600480360381019061018d9190611fd1565b6105be565b60405161019f9190612017565b60405180910390f35b6101c260048036038101906101bd919061205e565b6105d6565b005b6101de60048036038101906101d9919061209e565b610728565b005b3480156101ec57600080fd5b50610207600480360381019061020291906120cb565b61091a565b005b34801561021557600080fd5b50610230600480360381019061022b919061209e565b610a38565b604051610242969594939291906121e0565b60405180910390f35b34801561025757600080fd5b50610272600480360381019061026d919061209e565b610b48565b60405161027f9190612257565b60405180910390f35b6102a2600480360381019061029d9190612272565b610b7b565b005b3480156102b057600080fd5b506102b9610d73565b005b3480156102c757600080fd5b506102e260048036038101906102dd9190611fd1565b610e10565b6040516102ef9190612383565b60405180910390f35b34801561030457600080fd5b5061031f600480360381019061031a919061209e565b610f63565b60405161032c9190612257565b60405180910390f35b34801561034157600080fd5b5061035c60048036038101906103579190611fd1565b610f96565b005b34801561036a57600080fd5b50610385600480360381019061038091906120cb565b611021565b005b34801561039357600080fd5b506103ae60048036038101906103a9919061209e565b611175565b6040516103bb9190612257565b60405180910390f35b3480156103d057600080fd5b506103d96111b2565b6040516103e69190612017565b60405180910390f35b3480156103fb57600080fd5b5061041660048036038101906104119190611fd1565b6111b8565b6040516104239190612017565b60405180910390f35b34801561043857600080fd5b50610441611201565b005b34801561044f57600080fd5b5061046a600480360381019061046591906124da565b611306565b005b34801561047857600080fd5b506104816113bd565b60405161048e9190612257565b60405180910390f35b3480156104a357600080fd5b506104ac6113e6565b6040516104b9919061253e565b60405180910390f35b3480156104ce57600080fd5b506104d761143d565b6040516104e49190612017565b60405180910390f35b3480156104f957600080fd5b50610514600480360381019061050f9190612559565b611443565b005b34801561052257600080fd5b5061052b6115a7565b6040516105389190612017565b60405180910390f35b34801561054d57600080fd5b506105686004803603810190610563919061209e565b6115ad565b005b34801561057657600080fd5b5061057f6115fe565b60405161058c9190612017565b60405180910390f35b3480156105a157600080fd5b506105bc60048036038101906105b79190611fd1565b611604565b005b60066020528060005260406000206000915090505481565b6005600082815260200190815260200160002060009054906101000a900473ffffffffffffffffffffffffffffffffffffffff1673ffffffffffffffffffffffffffffffffffffffff163373ffffffffffffffffffffffffffffffffffffffff1614610677576040517f08c379a000000000000000000000000000000000000000000000000000000000815260040161066e90612601565b60405180910390fd5b816009600083815260200190815260200160002060006101000a81548173ffffffffffffffffffffffffffffffffffffffff021916908373ffffffffffffffffffffffffffffffffffffffff160217905550808273ffffffffffffffffffffffffffffffffffffffff163373ffffffffffffffffffffffffffffffffffffffff167f8c5be1e5ebec7d5bd14f71427d1e84f3dd0314c0f7b2291e5b200ac8c7c3b92560405160405180910390a45050565b60028181600482815481106107405761073f612621565b5b906000526020600020906003020160020160009054906101000a900463ffffffff1663ffffffff1610156107a9576040517f08c379a00000000000000000000000000000000000000000000000000000000081526004016107a09061269c565b60405180910390fd5b826005600082815260200190815260200160002060009054906101000a900473ffffffffffffffffffffffffffffffffffffffff1673ffffffffffffffffffffffffffffffffffffffff163373ffffffffffffffffffffffffffffffffffffffff161461084b576040517f08c379a000000000000000000000000000000000000000000000000000000000815260040161084290612601565b60405180910390fd5b600854341461088f576040517f08c379a000000000000000000000000000000000000000000000000000000000815260040161088690612708565b60405180910390fd5b6001600485815481106108a5576108a4612621565b5b906000526020600020906003020160020160009054906101000a900463ffffffff166108d19190612757565b600485815481106108e5576108e4612621565b5b906000526020600020906003020160020160006101000a81548163ffffffff021916908363ffffffff16021790555050505050565b6000600760009054906101000a900473ffffffffffffffffffffffffffffffffffffffff1673ffffffffffffffffffffffffffffffffffffffff1663e98b7f4d836040518263ffffffff1660e01b81526004016109779190612017565b61014060405180830381865afa158015610995573d6000803e3d6000fd5b505050506040513d601f19601f820116820180604052508101906109b991906127d2565b90919293949596979850909192939495969750909192939495965090919293949550909192939450909192935090919250909150905080915050610a3383826040518060400160405280600581526020017f6b69747479000000000000000000000000000000000000000000000000000000815250611778565b505050565b60048181548110610a4857600080fd5b9060005260206000209060030201600091509050806000018054610a6b906128e0565b80601f0160208091040260200160405190810160405280929190818152602001828054610a97906128e0565b8015610ae45780601f10610ab957610100808354040283529160200191610ae4565b820191906000526020600020905b815481529060010190602001808311610ac757829003601f168201915b5050505050908060010154908060020160009054906101000a900463ffffffff16908060020160049054906101000a900463ffffffff16908060020160089054906101000a900461ffff169080600201600a9054906101000a900461ffff16905086565b60096020528060005260406000206000915054906101000a900473ffffffffffffffffffffffffffffffffffffffff1681565b600073ffffffffffffffffffffffffffffffffffffffff168273ffffffffffffffffffffffffffffffffffffffff161415610beb576040517f08c379a0000000000000000000000000000000000000000000000000000000008152600401610be29061295e565b60405180910390fd5b8273ffffffffffffffffffffffffffffffffffffffff166005600083815260200190815260200160002060009054906101000a900473ffffffffffffffffffffffffffffffffffffffff1673ffffffffffffffffffffffffffffffffffffffff1614610c8c576040517f08c379a0000000000000000000000000000000000000000000000000000000008152600401610c8390612601565b60405180910390fd5b8273ffffffffffffffffffffffffffffffffffffffff163373ffffffffffffffffffffffffffffffffffffffff161480610d2457506009600082815260200190815260200160002060009054906101000a900473ffffffffffffffffffffffffffffffffffffffff1673ffffffffffffffffffffffffffffffffffffffff163373ffffffffffffffffffffffffffffffffffffffff16145b610d63576040517f08c379a0000000000000000000000000000000000000000000000000000000008152600401610d5a906129ca565b60405180910390fd5b610d6e838383611981565b505050565b610d7b6113e6565b610dba576040517f08c379a0000000000000000000000000000000000000000000000000000000008152600401610db190612a36565b60405180910390fd5b6000610dc46113bd565b90508073ffffffffffffffffffffffffffffffffffffffff166108fc479081150290604051600060405180830381858888f19350505050158015610e0c573d6000803e3d6000fd5b5050565b60606000600660008473ffffffffffffffffffffffffffffffffffffffff1673ffffffffffffffffffffffffffffffffffffffff1681526020019081526020016000205467ffffffffffffffff811115610e6d57610e6c6123af565b5b604051908082528060200260200182016040528015610e9b5781602001602082028036833780820191505090505b5090506000805b600480549050811015610f58578473ffffffffffffffffffffffffffffffffffffffff166005600083815260200190815260200160002060009054906101000a900473ffffffffffffffffffffffffffffffffffffffff1673ffffffffffffffffffffffffffffffffffffffff161415610f455780838381518110610f2a57610f29612621565b5b6020026020010181815250508180610f4190612a56565b9250505b8080610f5090612a56565b915050610ea2565b508192505050919050565b60056020528060005260406000206000915054906101000a900473ffffffffffffffffffffffffffffffffffffffff1681565b610f9e6113e6565b610fdd576040517f08c379a0000000000000000000000000000000000000000000000000000000008152600401610fd490612a36565b60405180910390fd5b80600760006101000a81548173ffffffffffffffffffffffffffffffffffffffff021916908373ffffffffffffffffffffffffffffffffffffffff16021790555050565b601482816004828154811061103957611038612621565b5b906000526020600020906003020160020160009054906101000a900463ffffffff1663ffffffff1610156110a2576040517f08c379a00000000000000000000000000000000000000000000000000000000081526004016110999061269c565b60405180910390fd5b836005600082815260200190815260200160002060009054906101000a900473ffffffffffffffffffffffffffffffffffffffff1673ffffffffffffffffffffffffffffffffffffffff163373ffffffffffffffffffffffffffffffffffffffff1614611144576040517f08c379a000000000000000000000000000000000000000000000000000000000815260040161113b90612601565b60405180910390fd5b836004868154811061115957611158612621565b5b9060005260206000209060030201600101819055505050505050565b60006005600083815260200190815260200160002060009054906101000a900473ffffffffffffffffffffffffffffffffffffffff169050919050565b60015481565b6000600660008373ffffffffffffffffffffffffffffffffffffffff1673ffffffffffffffffffffffffffffffffffffffff168152602001908152602001600020549050919050565b6112096113e6565b611248576040517f08c379a000000000000000000000000000000000000000000000000000000000815260040161123f90612a36565b60405180910390fd5b600073ffffffffffffffffffffffffffffffffffffffff1660008054906101000a900473ffffffffffffffffffffffffffffffffffffffff1673ffffffffffffffffffffffffffffffffffffffff167f8be0079c531659141344cd1fd0a4f28419497f9722a3daafe3b4186f6b6457e060405160405180910390a360008060006101000a81548173ffffffffffffffffffffffffffffffffffffffff021916908373ffffffffffffffffffffffffffffffffffffffff160217905550565b6000600660003373ffffffffffffffffffffffffffffffffffffffff1673ffffffffffffffffffffffffffffffffffffffff1681526020019081526020016000205414611388576040517f08c379a000000000000000000000000000000000000000000000000000000000815260040161137f90612aeb565b60405180910390fd5b600061139382611b5f565b90506064816113a29190612b3a565b816113ad9190612b6b565b90506113b98282611ba4565b5050565b60008060009054906101000a900473ffffffffffffffffffffffffffffffffffffffff16905090565b60008060009054906101000a900473ffffffffffffffffffffffffffffffffffffffff1673ffffffffffffffffffffffffffffffffffffffff163373ffffffffffffffffffffffffffffffffffffffff1614905090565b60035481565b600282816004828154811061145b5761145a612621565b5b906000526020600020906003020160020160009054906101000a900463ffffffff1663ffffffff1610156114c4576040517f08c379a00000000000000000000000000000000000000000000000000000000081526004016114bb9061269c565b60405180910390fd5b836005600082815260200190815260200160002060009054906101000a900473ffffffffffffffffffffffffffffffffffffffff1673ffffffffffffffffffffffffffffffffffffffff163373ffffffffffffffffffffffffffffffffffffffff1614611566576040517f08c379a000000000000000000000000000000000000000000000000000000000815260040161155d90612601565b60405180910390fd5b836004868154811061157b5761157a612621565b5b9060005260206000209060030201600001908051906020019061159f929190611ebc565b505050505050565b60085481565b6115b56113e6565b6115f4576040517f08c379a00000000000000000000000000000000000000000000000000000000081526004016115eb90612a36565b60405180910390fd5b8060088190555050565b60025481565b61160c6113e6565b61164b576040517f08c379a000000000000000000000000000000000000000000000000000000000815260040161164290612a36565b60405180910390fd5b600073ffffffffffffffffffffffffffffffffffffffff168173ffffffffffffffffffffffffffffffffffffffff1614156116bb576040517f08c379a00000000000000000000000000000000000000000000000000000000081526004016116b290612beb565b60405180910390fd5b8073ffffffffffffffffffffffffffffffffffffffff1660008054906101000a900473ffffffffffffffffffffffffffffffffffffffff1673ffffffffffffffffffffffffffffffffffffffff167f8be0079c531659141344cd1fd0a4f28419497f9722a3daafe3b4186f6b6457e060405160405180910390a3806000806101000a81548173ffffffffffffffffffffffffffffffffffffffff021916908373ffffffffffffffffffffffffffffffffffffffff16021790555050565b826005600082815260200190815260200160002060009054906101000a900473ffffffffffffffffffffffffffffffffffffffff1673ffffffffffffffffffffffffffffffffffffffff163373ffffffffffffffffffffffffffffffffffffffff161461181a576040517f08c379a000000000000000000000000000000000000000000000000000000000815260040161181190612601565b60405180910390fd5b6000600485815481106118305761182f612621565b5b9060005260206000209060030201905061184981611e0f565b611888576040517f08c379a000000000000000000000000000000000000000000000000000000000815260040161187f90612c57565b60405180910390fd5b600254846118969190612b3a565b9350600060028583600101546118ac9190612c77565b6118b69190612ccd565b90506040516020016118c790612d55565b60405160208183030381529060405280519060200120846040516020016118ee9190612d9b565b6040516020818303038152906040528051906020012014156119315760636064826119199190612b3a565b826119249190612b6b565b61192e9190612c77565b90505b6119706040518060400160405280600681526020017f4e6f4e616d65000000000000000000000000000000000000000000000000000081525082611ba4565b61197982611e36565b505050505050565b6119d46001600660008573ffffffffffffffffffffffffffffffffffffffff1673ffffffffffffffffffffffffffffffffffffffff16815260200190815260200160002054611e6990919063ffffffff16565b600660008473ffffffffffffffffffffffffffffffffffffffff1673ffffffffffffffffffffffffffffffffffffffff16815260200190815260200160002081905550611a6a6001600660008673ffffffffffffffffffffffffffffffffffffffff1673ffffffffffffffffffffffffffffffffffffffff16815260200190815260200160002054611e9590919063ffffffff16565b600660008573ffffffffffffffffffffffffffffffffffffffff1673ffffffffffffffffffffffffffffffffffffffff16815260200190815260200160002081905550816005600083815260200190815260200160002060006101000a81548173ffffffffffffffffffffffffffffffffffffffff021916908373ffffffffffffffffffffffffffffffffffffffff160217905550808273ffffffffffffffffffffffffffffffffffffffff168473ffffffffffffffffffffffffffffffffffffffff167fddf252ad1be2c89b69c2b068fc378daa952ba7f163c4a11628f55a4df523b3ef60405160405180910390a4505050565b60008082604051602001611b739190612d9b565b6040516020818303038152906040528051906020012060001c905060025481611b9c9190612b3a565b915050919050565b6000600480549050905060046040518060c00160405280858152602001848152602001600163ffffffff16815260200160035442611be29190612c77565b63ffffffff168152602001600061ffff168152602001600061ffff1681525090806001815401808255809150506001900390600052602060002090600302016000909190919091506000820151816000019080519060200190611c46929190611ebc565b506020820151816001015560408201518160020160006101000a81548163ffffffff021916908363ffffffff16021790555060608201518160020160046101000a81548163ffffffff021916908363ffffffff16021790555060808201518160020160086101000a81548161ffff021916908361ffff16021790555060a082015181600201600a6101000a81548161ffff021916908361ffff1602179055505050336005600083815260200190815260200160002060006101000a81548173ffffffffffffffffffffffffffffffffffffffff021916908373ffffffffffffffffffffffffffffffffffffffff160217905550611d8c6001600660003373ffffffffffffffffffffffffffffffffffffffff1673ffffffffffffffffffffffffffffffffffffffff16815260200190815260200160002054611e6990919063ffffffff16565b600660003373ffffffffffffffffffffffffffffffffffffffff1673ffffffffffffffffffffffffffffffffffffffff168152602001908152602001600020819055507f88f026aacbbecc90c18411df4b1185fd8d9be2470f1962f192bf84a27d0704b7818484604051611e0293929190612db2565b60405180910390a1505050565b6000428260020160049054906101000a900463ffffffff1663ffffffff1611159050919050565b60035442611e449190612c77565b8160020160046101000a81548163ffffffff021916908363ffffffff16021790555050565b6000808284611e789190612c77565b905083811015611e8b57611e8a612df0565b5b8091505092915050565b600082821115611ea857611ea7612df0565b5b8183611eb49190612b6b565b905092915050565b828054611ec8906128e0565b90600052602060002090601f016020900481019282611eea5760008555611f31565b82601f10611f0357805160ff1916838001178555611f31565b82800160010185558215611f31579182015b82811115611f30578251825591602001919060010190611f15565b5b509050611f3e9190611f42565b5090565b5b80821115611f5b576000816000905550600101611f43565b5090565b6000604051905090565b600080fd5b600080fd5b600073ffffffffffffffffffffffffffffffffffffffff82169050919050565b6000611f9e82611f73565b9050919050565b611fae81611f93565b8114611fb957600080fd5b50565b600081359050611fcb81611fa5565b92915050565b600060208284031215611fe757611fe6611f69565b5b6000611ff584828501611fbc565b91505092915050565b6000819050919050565b61201181611ffe565b82525050565b600060208201905061202c6000830184612008565b92915050565b61203b81611ffe565b811461204657600080fd5b50565b60008135905061205881612032565b92915050565b6000806040838503121561207557612074611f69565b5b600061208385828601611fbc565b925050602061209485828601612049565b9150509250929050565b6000602082840312156120b4576120b3611f69565b5b60006120c284828501612049565b91505092915050565b600080604083850312156120e2576120e1611f69565b5b60006120f085828601612049565b925050602061210185828601612049565b9150509250929050565b600081519050919050565b600082825260208201905092915050565b60005b8381101561214557808201518184015260208101905061212a565b83811115612154576000848401525b50505050565b6000601f19601f8301169050919050565b60006121768261210b565b6121808185612116565b9350612190818560208601612127565b6121998161215a565b840191505092915050565b600063ffffffff82169050919050565b6121bd816121a4565b82525050565b600061ffff82169050919050565b6121da816121c3565b82525050565b600060c08201905081810360008301526121fa818961216b565b90506122096020830188612008565b61221660408301876121b4565b61222360608301866121b4565b61223060808301856121d1565b61223d60a08301846121d1565b979650505050505050565b61225181611f93565b82525050565b600060208201905061226c6000830184612248565b92915050565b60008060006060848603121561228b5761228a611f69565b5b600061229986828701611fbc565b93505060206122aa86828701611fbc565b92505060406122bb86828701612049565b9150509250925092565b600081519050919050565b600082825260208201905092915050565b6000819050602082019050919050565b6122fa81611ffe565b82525050565b600061230c83836122f1565b60208301905092915050565b6000602082019050919050565b6000612330826122c5565b61233a81856122d0565b9350612345836122e1565b8060005b8381101561237657815161235d8882612300565b975061236883612318565b925050600181019050612349565b5085935050505092915050565b6000602082019050818103600083015261239d8184612325565b905092915050565b600080fd5b600080fd5b7f4e487b7100000000000000000000000000000000000000000000000000000000600052604160045260246000fd5b6123e78261215a565b810181811067ffffffffffffffff82111715612406576124056123af565b5b80604052505050565b6000612419611f5f565b905061242582826123de565b919050565b600067ffffffffffffffff821115612445576124446123af565b5b61244e8261215a565b9050602081019050919050565b82818337600083830152505050565b600061247d6124788461242a565b61240f565b905082815260208101848484011115612499576124986123aa565b5b6124a484828561245b565b509392505050565b600082601f8301126124c1576124c06123a5565b5b81356124d184826020860161246a565b91505092915050565b6000602082840312156124f0576124ef611f69565b5b600082013567ffffffffffffffff81111561250e5761250d611f6e565b5b61251a848285016124ac565b91505092915050565b60008115159050919050565b61253881612523565b82525050565b6000602082019050612553600083018461252f565b92915050565b600080604083850312156125705761256f611f69565b5b600061257e85828601612049565b925050602083013567ffffffffffffffff81111561259f5761259e611f6e565b5b6125ab858286016124ac565b9150509250929050565b7f4e6f7420746865206f776e6572206f6620746865207a6f6d6269650000000000600082015250565b60006125eb601b83612116565b91506125f6826125b5565b602082019050919050565b6000602082019050818103600083015261261a816125de565b9050919050565b7f4e487b7100000000000000000000000000000000000000000000000000000000600052603260045260246000fd5b7f5a6f6d626965206c6576656c206973206e6f742073756666696369656e740000600082015250565b6000612686601e83612116565b915061269182612650565b602082019050919050565b600060208201905081810360008301526126b581612679565b9050919050565b7f496e636f7272656374206665652070726f766964656400000000000000000000600082015250565b60006126f2601683612116565b91506126fd826126bc565b602082019050919050565b60006020820190508181036000830152612721816126e5565b9050919050565b7f4e487b7100000000000000000000000000000000000000000000000000000000600052601160045260246000fd5b6000612762826121a4565b915061276d836121a4565b92508263ffffffff0382111561278657612785612728565b5b828201905092915050565b61279a81612523565b81146127a557600080fd5b50565b6000815190506127b781612791565b92915050565b6000815190506127cc81612032565b92915050565b6000806000806000806000806000806101408b8d0312156127f6576127f5611f69565b5b60006128048d828e016127a8565b9a505060206128158d828e016127a8565b99505060406128268d828e016127bd565b98505060606128378d828e016127bd565b97505060806128488d828e016127bd565b96505060a06128598d828e016127bd565b95505060c061286a8d828e016127bd565b94505060e061287b8d828e016127bd565b93505061010061288d8d828e016127bd565b92505061012061289f8d828e016127bd565b9150509295989b9194979a5092959850565b7f4e487b7100000000000000000000000000000000000000000000000000000000600052602260045260246000fd5b600060028204905060018216806128f857607f821691505b6020821081141561290c5761290b6128b1565b5b50919050565b7f496e76616c696420726563697069656e74206164647265737300000000000000600082015250565b6000612948601983612116565b915061295382612912565b602082019050919050565b600060208201905081810360008301526129778161293b565b9050919050565b7f4e6f7420617574686f72697a656420746f207472616e73666572000000000000600082015250565b60006129b4601a83612116565b91506129bf8261297e565b602082019050919050565b600060208201905081810360008301526129e3816129a7565b9050919050565b7f4e6f7420746865206f776e657200000000000000000000000000000000000000600082015250565b6000612a20600d83612116565b9150612a2b826129ea565b602082019050919050565b60006020820190508181036000830152612a4f81612a13565b9050919050565b6000612a6182611ffe565b91507fffffffffffffffffffffffffffffffffffffffffffffffffffffffffffffffff821415612a9457612a93612728565b5b600182019050919050565b7f596f752063616e206f6e6c7920637265617465206f6e65207a6f6d6269650000600082015250565b6000612ad5601e83612116565b9150612ae082612a9f565b602082019050919050565b60006020820190508181036000830152612b0481612ac8565b9050919050565b7f4e487b7100000000000000000000000000000000000000000000000000000000600052601260045260246000fd5b6000612b4582611ffe565b9150612b5083611ffe565b925082612b6057612b5f612b0b565b5b828206905092915050565b6000612b7682611ffe565b9150612b8183611ffe565b925082821015612b9457612b93612728565b5b828203905092915050565b7f496e76616c6964206e6577206f776e6572000000000000000000000000000000600082015250565b6000612bd5601183612116565b9150612be082612b9f565b602082019050919050565b60006020820190508181036000830152612c0481612bc8565b9050919050565b7f5a6f6d626965206973206e6f7420726561647900000000000000000000000000600082015250565b6000612c41601383612116565b9150612c4c82612c0b565b602082019050919050565b60006020820190508181036000830152612c7081612c34565b9050919050565b6000612c8282611ffe565b9150612c8d83611ffe565b9250827fffffffffffffffffffffffffffffffffffffffffffffffffffffffffffffffff03821115612cc257612cc1612728565b5b828201905092915050565b6000612cd882611ffe565b9150612ce383611ffe565b925082612cf357612cf2612b0b565b5b828204905092915050565b600081905092915050565b7f6b69747479000000000000000000000000000000000000000000000000000000600082015250565b6000612d3f600583612cfe565b9150612d4a82612d09565b600582019050919050565b6000612d6082612d32565b9150819050919050565b6000612d758261210b565b612d7f8185612cfe565b9350612d8f818560208601612127565b80840191505092915050565b6000612da78284612d6a565b915081905092915050565b6000606082019050612dc76000830186612008565b8181036020830152612dd9818561216b565b9050612de86040830184612008565b949350505050565b7f4e487b7100000000000000000000000000000000000000000000000000000000600052600160045260246000fdfea2646970667358221220256048615774f93db01bc25ed690f399ce8cd7a023f641ebfdf864527e10e1a464736f6c634300080a0033",
  "immutableReferences": {},
  "source": "// SPDX-License-Identifier: MIT\npragma solidity ^0.8.10;\n\nimport \"./zombiehelper.sol\";\nimport \"./erc721.sol\";\nimport \"./SafeMath.sol\"; // Add this line to import SafeMath\n\ncontract ZombieOwnership is ZombieHelper, ERC721 {\n\n    using SafeMath for uint256; // Add this line to use SafeMath for uint256\n\n    mapping(uint256 => address) public approvedZombieTransfer;\n\n    function balanceOf(address _owner) external view override returns (uint256) {\n        return ownerZombieCount[_owner];\n    }\n\n    function ownerOf(uint256 _tokenId) external view override returns (address) {\n        return zombieToOwner[_tokenId];\n    }\n\n    function transferFrom(address _from, address _to, uint256 _tokenId) external payable override {\n        // Implement the transfer logic here\n        // Make sure to check ownership and handle the transfer\n        require(_to != address(0), \"Invalid recipient address\");\n        require(zombieToOwner[_tokenId] == _from, \"Not the owner of the zombie\");\n        require(msg.sender == _from || msg.sender == approvedZombieTransfer[_tokenId], \"Not authorized to transfer\");\n\n        _transfer(_from, _to, _tokenId);\n    }\n\n    function approve(address _approved, uint256 _tokenId) external payable override {\n        // Implement the approve logic here\n        // Allow _approved to take ownership of the zombie with _tokenId\n        require(msg.sender == zombieToOwner[_tokenId], \"Not the owner of the zombie\");\n\n        approvedZombieTransfer[_tokenId] = _approved;\n        emit Approval(msg.sender, _approved, _tokenId);\n    }\n\n    function _transfer(address _from, address _to, uint256 _tokenId) internal {\n        // Implement the actual transfer logic here\n        ownerZombieCount[_to] = ownerZombieCount[_to].add(1);\n        ownerZombieCount[_from] = ownerZombieCount[_from].sub(1);\n        zombieToOwner[_tokenId] = _to;\n        emit Transfer(_from, _to, _tokenId);\n    }\n}\n",
  "sourcePath": "C:\\Users\\SK2712\\OneDrive - Cal State Fullerton\\Desktop\\MidtermProj\\Cryptozombie demo package\\contracts\\zombieownership.sol",
  "compiler": {
    "name": "solc",
    "version": "0.8.10+commit.fc410830.Emscripten.clang"
  },
  "schemaVersion": "3.4.16",
  "updatedAt": "2024-03-12T23:28:45.957Z",
  "networkType": "ethereum",
  "devdoc": {
    "kind": "dev",
    "methods": {},
    "version": 1
  },
  "userdoc": {
    "kind": "user",
    "methods": {},
    "version": 1
  }
}